:020000040804EE
:1000000000000520191D0408E91A0408EF1A040865
:10001000F51A0408FB1A0408011B0408000000007C
:10002000000000000000000000000000F1B1040822
:10003000071B04080000000001B4040869B40408A8
:10004000691D0408691D0408691D0408691D040868
:10005000691D0408691D0408691D0408691D040858
:10006000691D0408691D0408691D0408691D040848
:10007000691D0408691D0408691D0408691D040838
:10008000691D0408691D0408691D0408691D040828
:10009000151B0408691D0408691D0408691D04086E
:1000A000691D0408691D0408691D0408691D040808
:1000B000691D0408691D0408691D0408691D0408F8
:1000C000691D0408691D0408691D0408691D0408E8
:1000D000691D0408291B0408691D04083D1B040848
:1000E000691D0408691D0408691D0408691D0408C8
:1000F000691D0408691D0408691D0408691D0408B8
:10010000691D0408691D0408691D0408691D0408A7
:10011000511B0408651B0408791B04088D1B040887
:10012000691D0408691D0408691D0408691D040887
:10013000691D0408A11B0408691D0408691D040841
:10014000691D0408691D0408691D0408691D040867
:10015000691D0408691D0408691D0408B51B04080D
:10016000691D0408691D0408691D0408691D040847
:10017000691D0408691D0408691D040800000000C9
:10018000691D0408691D0408691D0408691D040827
:10019000691D0408691D0408691D0408691D040817
:1001A000691D0408691D0408691D0408691D040807
:1001B000691D0408691D0408691D0408691D0408F7
:0801C000691D0408691D040813
:1001D00010B5054C237833B9044B13B10448AFF381
:1001E00000800123237010BDD80100200000000012
:1001F0006CA1050808B5034B1BB103490348AFF3D5
:10020000008008BD00000000DC0100206CA1050892
:10021000034613F8012B002AFBD1181A0138704746
:1002200001F0FF01102A2BDB10F0070F08D010F8A7
:10023000013B013A8B422DD010F0070F42B3F6D1AB
:10024000F0B441EA012141EA014122F007047FF0C4
:1002500000070023F0E80256083C85EA010586EA1B
:10026000010685FA47F5A3FA87F586FA47F6A5FA57
:1002700087F68EB9EED1F0BC01F0FF0102F0070263
:1002800032B110F8013B013A83EA010313B1F8D10E
:100290000020704701387047002D06BF35460338EF
:1002A000073815F0010F07D1013015F4807F02BF28
:1002B000013015F4C03F0130F0BC0138704700BF79
:1002C00053B94AB9002908BF00281CBF4FF0FF31BD
:1002D0004FF0FF3000F074B9ADF1080C6DE904CEB9
:1002E00000F006F8DDF804E0DDE9022304B0704711
:1002F0002DE9F047089D04468E46002B4DD18A42D9
:10030000944669D9B2FA82F252B101FA02F3C2F10B
:10031000200120FA01F10CFA02FC41EA030E94409C
:100320004FEA1C48210CBEFBF8F61FFA8CF708FBBD
:1003300016E341EA034306FB07F199420AD91CEB95
:10034000030306F1FF3080F01F81994240F21C81C7
:10035000023E63445B1AA4B2B3FBF8F008FB10330F
:1003600044EA034400FB07F7A7420AD91CEB040444
:1003700000F1FF3380F00A81A74240F20781644414
:10038000023840EA0640E41B00261DB1D440002399
:10039000C5E900433146BDE8F0878B4209D9002DFD
:1003A00000F0EF800026C5E9000130463146BDE887
:1003B000F087B3FA83F6002E4AD18B4202D38242F1
:1003C00000F2F980841A61EB030301209E46002DA0
:1003D000E0D0C5E9004EDDE702B9FFDEB2FA82F2F5
:1003E000002A40F09280A1EB0C014FEA1C471FFA53
:1003F0008CFE0126200CB1FBF7F307FB131140EA3A
:1004000001410EFB03F0884208D91CEB010103F106
:10041000FF3802D2884200F2CB804346091AA4B2C8
:10042000B1FBF7F007FB101144EA01440EFB00FE9C
:10043000A64508D91CEB040400F1FF3102D2A64501
:1004400000F2BB800846A4EB0E0440EA03409CE7A0
:10045000C6F12007B34022FA07FC4CEA030C20FA4D
:1004600007F401FA06F31C43F9404FEA1C4900FA6D
:1004700006F3B1FBF9F8200C1FFA8CFE09FB1811EA
:1004800040EA014108FB0EF0884202FA06F20BD95D
:100490001CEB010108F1FF3A80F08880884240F2AD
:1004A0008580A8F102086144091AA4B2B1FBF9F0F1
:1004B00009FB101144EA014100FB0EFE8E4508D9EC
:1004C0001CEB010100F1FF346CD28E456AD9023871
:1004D000614440EA0840A0FB0294A1EB0E01A14256
:1004E000C846A64656D353D05DB1B3EB080261EBC4
:1004F0000E0101FA07F722FA06F3F1401F43C5E99E
:10050000007100263146BDE8F087C2F12003D840D3
:100510000CFA02FC21FA03F3914001434FEA1C4715
:100520001FFA8CFEB3FBF7F007FB10360B0C43EA07
:10053000064300FB0EF69E4204FA02F408D91CEBB7
:10054000030300F1FF382FD29E422DD902386344B5
:100550009B1B89B2B3FBF7F607FB163341EA034155
:1005600006FB0EF38B4208D91CEB010106F1FF38A4
:1005700016D28B4214D9023E6144C91A46EA00469B
:1005800038E72E46284605E70646E3E61846F8E62D
:100590004B45A9D2B9EB020864EB0C0E0138A3E776
:1005A0004646EAE7204694E74046D1E7D0467BE757
:1005B000023B614432E7304609E76444023842E7CF
:1005C000704700BF80B5B4B000AF7860396007F104
:1005D00008033A687968184618F0BCFE0346002BF9
:1005E000CCBF01230023DBB2002B0CD007F10803A2
:1005F0001846FFF70DFE03469AB207F108010A23D9
:10060000034805F04FFD00BFD037BD4680BD00BF99
:10061000540500200FB480B582B000AF07F1140379
:100620007B6079683869FFF7CDFF00BF0837BD46AA
:10063000BDE8804004B0704780B582B000AF7860FC
:100640007B681B68164A934210D1252002F07BFB81
:1006500001221449144805F0A9FD252002F065FB8C
:1006600001221049104805F0FFFD14E07B681B686B
:100670000E4A93420FD1272002F065FB01220C495C
:100680000C4805F093FD272002F04FFB012208499A
:10069000084805F0E9FD00BF0837BD4680BD00BF32
:1006A00000100140F40100205405002000480040E3
:1006B000F5010020DC05002080B500AF01220549CE
:1006C000054805F0D1FD01220449054805F0CCFD9F
:1006D00000BF80BDF401002054050020F50100207A
:1006E000DC05002080B584B000AF0023FB60204B08
:1006F0001B78BB601F4B1B787B601F4B1B783B60DC
:10070000BB68002B02D0BB68FB600AE07B68002B53
:1007100002D07B68FB6004E03B68002B01D03B68A3
:10072000FB60FB68322B12D0FB68322B11DCFB68BC
:10073000302B02D0FB68312B0BE01048FFF76AFF2B
:1007400040F6B83001F0A0FC02F00BFB02E000BF65
:1007500000E000BF064B00221A70064B00221A7000
:10076000054B00221A7000BF1037BD4680BD00BF88
:10077000F4010020F50100204403002084A10508B5
:1007800080B584B000AF78603960244B1B68002BC3
:100790000ED1234A234BD31AA3F50073224A1360C8
:1007A0001F4A204BD31AA3F500731A461B4B1A603D
:1007B0000AF078FA0346012B01D16B4600E01B4B8F
:1007C000FB6009F095FE1A4B1B68BB60184B1A685A
:1007D0003B681344FA689A4207D27B680C221A607D
:1007E00009F094FE4FF0FF3314E0114B1A683B6898
:1007F00013440F4A13600C4B1A683B68D31A0A4A19
:1008000013600C4B1A683B6813440A4A136009F0E2
:100810007DFEBB6818461037BD4680BDFC01002038
:100820000000052040B70020F801002000FE042051
:10083000000000200002002080B586B000AF786084
:10084000EFF305833B613B69002B02D10023FB6082
:1008500001E00123FB60FB68002B14BF0123002390
:10086000FB75FB7D002B0CD04FF0500372B683F369
:100870001188BFF36F8FBFF34F8F62B6BB6000BFAD
:10088000FEE709F035FE00BF1837BD4680BD80B5D4
:1008900082B000AF786009F039FE00BF0837BD466E
:1008A00080BD80B584B000AF7860786818F092FAA7
:1008B0000346FB60FB6818461037BD4680BD80B517
:1008C00082B000AF7860786818F08CFA00BF083703
:1008D000BD4680BD80B586B002AF786000220021A1
:1008E00010200AF075FE03464D4A13604C4B1B68FE
:1008F000002B00F08D804A4B1B680A22494918469C
:100900000AF020FF0346FB7397F90F30002B7AD1D2
:10091000434B1B68FF2118460AF04CFF404B1B68F5
:10092000414918460AF072FF0346BB7397F90E302F
:10093000002B64D13C4B1B683C4918460BF06EF908
:100940000346002B0CBF01230023DBB2002B4CD04D
:10095000364B1B680833364A1360344B1B689A8940
:10096000344B1A80314B1B681B6859682F4B1B682E
:100970001B685B891A46304818F0C3FC2B4B1B6878
:100980001B685968294B1B681B685B891A462B48F2
:1009900018F0B7FC284A2A492A4818F04FFCB860DA
:1009A000214B1868BA6800230093012325490BF0F6
:1009B000AFF964220021204818F054FA1B4B1B6841
:1009C00018460CF0C5FE0346002BCCBF01230023C4
:1009D000DBB2002B00D0C5E7144B1B6818460CF0A7
:1009E00097FE012007F0D6FEA4E70F4B1B681846C0
:1009F0000BF090FA0C4B1B6818460AF087FE01209A
:100A000007F0C8FE8AE7064B1B6818460AF07EFE10
:100A1000002009F0B3FB00BF1037BD4680BD00BF0A
:100A20000402002028D90508080200200C0200203A
:100A30003C0300204003002010020020440300205B
:100A4000B0A105087402002080B582B002AF002377
:100A500000934FF4806300220349044818F050F8D3
:100A600000BFBD4680BD00BFD5080408D0A1050861
:100A700080B500AF00F0AAFA00F08CF800F03EFA62
:100A800000F034F900F09CF900F0CEF900F000FA23
:100A900000F060F900F0EAF800BF80BD80B594B0C6
:100AA00000AF07F1200330220021184618F0DAF9D0
:100AB00007F10C0300221A605A609A60DA601A612A
:100AC000324B1B6C314A43F0805313642F4B1B6C29
:100AD00003F08053BB60BB682D4B1B682C4A43F46A
:100AE000404313602A4B1B6803F440437B607B68E0
:100AF00001233B624FF480337B620223BB634FF4DC
:100B00008003FB6319233B644FF4D8737B64022397
:100B1000BB640223FB6407F12003184603F01CFEAC
:100B20000346002B14BF01230023DBB2002B01D0AE
:100B300000F04CFB03F0C0FD0346002B14BF012363
:100B40000023DBB2002B01D000F040FB0F23FB6041
:100B500002233B6100237B614FF4A053BB614FF440
:100B60008053FB6107F10C030721184604F098F845
:100B70000346002B14BF01230023DBB2002B01D05E
:100B800000F024FB00BF5037BD4680BD0038024056
:100B90000070004080B500AF314B324A1A60304BD4
:100BA0000C225A602E4B00229A602D4B0022DA60F4
:100BB0002B4B4FF460221A61294B4FF480125A617B
:100BC000274B00221A76264B00225A76244B00220D
:100BD0009A76234B0022DA76214B00221A77204B9B
:100BE00000225A771E4801F073FA0346002B14BF07
:100BF00001230023DBB2002B01D000F0E7FA1A4BEF
:100C000000225A61184B00229A61174B0122DA61C7
:100C1000154B41F6FF721A60134B4FF6FF725A6084
:100C2000114B00229A60104B0022DA600E4B00221A
:100C30001A610D4B01221A620B4B0E225A620A49AD
:100C4000074801F041FB0346002B14BF012300239A
:100C5000DBB2002B01D000F0B9FA00BF80BD00BFAD
:100C6000A803002000640040D003002080B584B0B9
:100C700000AF3B1D00221A605A609A60194B1A4A55
:100C80001A60184B6B225A60164B00229A60154B63
:100C90006322DA60134B80229A61124804F050FEFE
:100CA0000346002B14BF01230023DBB2002B01D02D
:100CB00000F08CFA00237B600023FB603B1D19468B
:100CC000084805F0F5F80346002B14BF0123002364
:100CD000DBB2002B01D000F079FA00BF1037BD461F
:100CE00080BD00BFF80300200014004080B500AFB5
:100CF000164B174A1A60154B4FF4E1325A60134BEA
:100D000000229A60114B0022DA60104B00221A6117
:100D10000E4B0C225A610D4B00229A610B4B0022A4
:100D2000DA610A4B00221A62084B00225A62074815
:100D300005F06AF90346002B14BF01230023DBB240
:100D4000002B01D000F042FA00BF80BD4404002017
:100D5000004C004080B500AF174B184A1A60164B84
:100D60004FF4E1325A60144B4FF480529A60124BA8
:100D70000022DA60104B4FF480621A610E4B0C2295
:100D80005A610D4B00229A610B4B0022DA610A4B2B
:100D900000221A62084B00225A62074805F034F913
:100DA0000346002B14BF01230023DBB2002B01D02C
:100DB00000F00CFA00BF80BDCC04002000500040C1
:100DC00080B500AF164B174A1A60154B4FF4E1324D
:100DD0005A60134B00229A60114B0022DA60104BCC
:100DE00000221A610E4B0C225A610D4B00229A61AF
:100DF0000B4B0022DA610A4B00221A62084B0022D8
:100E00005A62074805F000F90346002B14BF01237E
:100E10000023DBB2002B01D000F0D8F900BF80BD69
:100E2000540500200010014080B500AF164B174A52
:100E30001A60154B4FF4E1325A60134B00229A604E
:100E4000114B0022DA60104B00221A610E4B0C226B
:100E50005A610D4B00229A610B4B0022DA610A4B5A
:100E600000221A62084B00225A62074805F0CCF8AB
:100E70000346002B14BF01230023DBB2002B01D05B
:100E800000F0A4F900BF80BDDC0500200048004050
:100E900080B500AF174B184A1A60164B4FF4E13279
:100EA0005A60144B4FF480529A60124B0022DA6061
:100EB000104B4FF480621A610E4B0C225A610D4B9D
:100EC00000229A610B4B0022DA610A4B00221A625F
:100ED000084B00225A62074805F096F80346002B9B
:100EE00014BF01230023DBB2002B01D000F06EF908
:100EF00000BF80BD640600200014014080B588B0AA
:100F000000AF3B1D00221A605A609A60DA601A61D5
:100F10005A619A612B4B4FF020421A60294B2A4AA2
:100F20005A60284B00229A60264B0022DA60254B3B
:100F300004221A61234B10225A61224B00229A612B
:100F4000204B0022DA611F4B00221A621D4B002247
:100F50005A621C4B00229A621A4B0022DA62194B29
:100F600000221A63174B00225A63164B00229A6321
:100F7000144B4FF40012DA63124B00221A6405235B
:100F80007B600F23BB600423FB6004233B611023C1
:100F90007B611123BB610023FB613B1D00221946CD
:100FA000084804F085FC0346002B14BF01230023EE
:100FB000DBB2002B01D000F009F900BF2037BD469D
:100FC00080BD00BFEC060020040100A080B58EB0FB
:100FD00000AF07F1240300221A605A609A60DA60B9
:100FE0001A616B4B1B6B6A4A43F010031363684B27
:100FF0001B6B03F010033B623B6A654B1B6B644A3F
:1010000043F004031363624B1B6B03F00403FB61A7
:10101000FB695F4B1B6B5E4A43F0200313635C4B21
:101020001B6B03F02003BB61BB69594B1B6B584A18
:1010300043F080031363564B1B6B03F080037B610B
:101040007B69534B1B6B524A43F001031363504BB4
:101050001B6B03F001033B613B694D4B1B6B4C4A1F
:1010600043F0020313634A4B1B6B03F00203FB6064
:10107000FB68474B1B6B464A43F040031363444BEA
:101080001B6B03F04003BB60BB68414B1B6B404ACA
:1010900043F0080313633E4B1B6B03F008037B60B4
:1010A0007B6800224FF6F0713A4803F0EBFA002219
:1010B00040F2E731384803F0E5FA00224FF440717E
:1010C000364803F0DFFA7F237B620023BB620023F4
:1010D000FB6207F124031946314803F027F94FF466
:1010E00040437B620023BB620023FB6207F12403C1
:1010F00019462A4803F01AF94FF6F0737B62012370
:10110000BB620023FB6200233B6307F12403194603
:10111000204803F00BF940F2C7337B620123BB6226
:101120000023FB6200233B6307F1240319461A489E
:1011300003F0FCF84FF2FF737B620023BB620023D5
:10114000FB6207F124031946164803F0EFF84FF449
:1011500040737B620123BB620023FB6200233B637D
:1011600007F1240319460D4803F0E0F820237B62C1
:101170000123BB620023FB6202233B6307F12403CC
:101180001946054803F0D2F800BF3837BD4680BD88
:1011900000380240001402400004024000080240EF
:1011A000001002400018024080B582B000AF7860A5
:1011B0007B681B68044A934201D100F045FF00BFE1
:1011C0000837BD4680BD00BF0010004080B400AFAE
:1011D00072B600BFFEE780B58CB000AF7860002328
:1011E000FB6000233B6107F10C0307F114020021AF
:1011F000786801F049F90346002B14BF012300234E
:10120000DBB2002B01D0FFF7E1FF00BF3037BD4656
:1012100080BD000080B485B000AFF860B9607A602E
:10122000FB68074A1A60BB68064A1A607B684FF47D
:1012300000721A6000BF1437BD465DF8047B70472A
:1012400038070020EC07002080B400AFBFF34F8FB9
:1012500000BFBFF36F8F00BF0D4B0022C3F85022B9
:10126000BFF34F8F00BFBFF36F8F00BF084B5B69A9
:10127000074A43F400335361BFF34F8F00BFBFF3FE
:101280006F8F00BF00BFBD465DF8047B704700BF95
:1012900000ED00E080B485B000AF254B0022C3F81C
:1012A0008420BFF34F8F00BF214BD3F880307B6089
:1012B0007B685B0BC3F30E03FB607B68DB08C3F347
:1012C0000903BB60FB685A0143F6E0731340BA6838
:1012D000920717491343C1F86032BB685A1EBA60BF
:1012E000002B14BF01230023DBB2002B00D0E9E761
:1012F000FB685A1EFA60002B14BF01230023DBB2E7
:10130000002B00D0D9E7BFF34F8F00BF084B5B69BC
:10131000074A43F480335361BFF34F8F00BFBFF3DD
:101320006F8F00BF00BF1437BD465DF8047B704768
:1013300000ED00E0B0B588B000AFFFF785FFFFF724
:10134000A9FF00F074FEFFF7A9FBFFF791FBFFF781
:10135000B3F90023032219460B48FFF75BF90B4B47
:101360003C1D1D460FCD0FC495E8070084E807001B
:101370003B1D0021184607F0C1F90346044A1360DB
:1013800007F0A5F9FEE700BF2CA205084CA205084E
:10139000EC0F0020B0B590B000AF786006F042FBD3
:1013A000FFF752FB164B07F124041D460FCD0FC467
:1013B00095E8070084E8070007F124030021184698
:1013C00007F09CF903460F4A13600F4B07F108041E
:1013D0001D460FCD0FC495E8070084E8070007F10C
:1013E00008030021184607F089F90346074A1360ED
:1013F000012007F0CFF9002008F0C0FEF8E700BF99
:1014000068A20508F00F002084A20508F40F002050
:1014100080B584B000AF78600523FB6009F014F953
:101420000346BB60FFF75EF9012007F0B3F907F14F
:1014300008030521184608F033FFF3E780B584B0B0
:1014400000AF78600223FB6009F0FEF80346BB6042
:10145000012007F09FF907F108030221184608F060
:101460001FFFF5E780B582B000AF114B1B6C104A2F
:1014700043F0805313640E4B1B6C03F080537B606E
:101480007B680B4B5B6C0A4A43F480435364084B04
:101490005B6C03F480433B603B6800220F216FF0DC
:1014A000010001F026FC00BF0837BD4680BD00BF2B
:1014B0000038024080B58AB000AF786007F11403AD
:1014C00000221A605A609A60DA601A617B681B68B1
:1014D0001B4A934230D11B4B1B6C1A4A43F00073DA
:1014E0001364184B1B6C03F000733B613B69154B95
:1014F0001B6B144A43F001031363124B1B6B03F085
:101500000103FB60FB684FF4C0537B610223BB61A6
:101510000023FB6103233B6209237B6207F1140371
:101520001946094802F002FF00220821142001F0A8
:10153000E0FB142001F0F9FB00BF2837BD4680BD59
:1015400000640040003802400000024080B584B0D2
:1015500000AF78607B681B680D4A934213D10D4B36
:101560001B6C0C4A43F0200313640A4B1B6C03F002
:101570002003FB60FB6800220721372001F0B9FB44
:10158000372001F0D2FB00BF1037BD4680BD00BF41
:10159000001400400038024080B5B4B000AF78605D
:1015A00007F1BC0300221A605A609A60DA601A617F
:1015B00007F1380384220021184617F053FC7B689A
:1015C0001B68A64A934246D14FF40073BB630023C5
:1015D000C7F8883007F13803184603F079FD034651
:1015E000002B01D0FFF7F2FD9D4B1B6C9C4A43F48E
:1015F000002313649A4B1B6C03F400237B637B6B07
:10160000974B1B6B964A43F004031363944B1B6B7D
:1016100003F004033B633B6B4FF44063C7F8BC30FB
:101620000223C7F8C0300023C7F8C4300323C7F82B
:10163000C8300823C7F8CC3007F1BC0319468948E5
:1016400002F074FE00220821342001F052FB342005
:1016500001F06BFB5EE17B681B68834A934267D1B4
:101660004FF48063BB630023C7F88C3007F1380365
:10167000184603F02DFD0346002B01D0FFF7A6FD11
:10168000774B1B6C764A43F480131364744B1B6CCA
:1016900003F48013FB62FB6A714B1B6B704A43F0CF
:1016A000040313636E4B1B6B03F00403BB62BB6A42
:1016B0006B4B1B6B6A4A43F008031363684B1B6B4D
:1016C00003F008037B627B6A4FF48053C7F8BC3099
:1016D0000223C7F8C0300023C7F8C4300323C7F87B
:1016E000C8300823C7F8CC3007F1BC0319465D4861
:1016F00002F01CFE0423C7F8BC300223C7F8C03038
:101700000023C7F8C4300323C7F8C8300823C7F83C
:10171000CC3007F1BC031946544802F007FE002202
:101720000521352001F0E5FA352001F0FEFAF1E05F
:101730007B681B684E4A934244D14023BB6300231D
:10174000FB6707F13803184603F0C2FC0346002B81
:1017500001D0FFF73BFD424B5B6C414A43F0100365
:1017600053643F4B5B6C03F010033B623B6A3C4BA2
:101770001B6B3B4A43F001031363394B1B6B03F0B4
:101780000103FB61FB694FF4C063C7F8BC3002235F
:10179000C7F8C0300023C7F8C4300323C7F8C830E7
:1017A0000723C7F8CC3007F1BC031946314802F0D3
:1017B000BDFD00220E21252001F09BFA252001F01D
:1017C000B4FAA7E07B681B682B4A934258D14FF4C8
:1017D0008073BB630023C7F8843007F138031846D1
:1017E00003F076FC0346002B01D0FFF7EFFC1C4B07
:1017F0001B6C1B4A43F480231364194B1B6C03F4CA
:101800008023BB61BB69164B1B6B154A43F0020377
:101810001363134B1B6B03F002037B617B694FF473
:101820004063C7F8BC300223C7F8C0300023C7F8B4
:10183000C4300323C7F8C8300723C7F8CC3007F1FA
:10184000BC0319460D4802F071FD00220821272033
:1018500001F04FFA272001F068FA5BE0004C0040ED
:10186000003802400008024000500040000C0240D6
:101870000010014000000240004800400004024007
:101880007B681B68254A934244D14FF40063BB63D5
:101890000023C7F8903007F13803184603F018FC0E
:1018A0000346002B01D0FFF791FC1D4B5B6C1C4ADB
:1018B00043F0200353641A4B5B6C03F020033B613D
:1018C0003B69174B1B6B164A43F004031363144B1D
:1018D0001B6B03F00403FB60FB68C023C7F8BC303C
:1018E0000223C7F8C0300023C7F8C4300323C7F869
:1018F000C8300823C7F8CC3007F1BC0319460948A3
:1019000002F014FD00220821472001F0F2F94720DF
:1019100001F00BFA00BFD037BD4680BD0014014076
:10192000003802400008024080B586B000AF3B1D81
:1019300000221A605A609A60DA601A61234B1B68B1
:10194000002B3ED1214B01221A60214B9B6B204A78
:1019500043F0010393631E4B9B6B03F001033B6059
:101960003B6807237B600223BB600023FB600323EB
:101970003B610C237B613B1D1946164802F0D6FCE7
:101980004FF680737B600223BB600023FB60032360
:101990003B610C237B613B1D19460F4802F0C6FCDE
:1019A0004CF2B3737B600223BB600023FB60032314
:1019B0003B610C237B613B1D1946084802F0B6FCD5
:1019C00000E000BF1837BD4680BD00BFF80F002003
:1019D000003802400014024000100240000C024097
:1019E00080B582B000AF7860FFF79EFF00BF083778
:1019F000BD4680BD80B58EB000AF78600023FB622D
:101A00000023BB62334B1B6C324A43F01003136458
:101A1000304B1B6C03F01003FB60FB6807F11002F6
:101A200007F114031146184603F020FB3B6AFB62E2
:101A3000FB6A002B03D103F0F1FA786304E003F0B2
:101A4000EDFA03465B007B637B6B234AA2FB032317
:101A50009B0C013BBB62214B214A1A601F4B40F299
:101A6000E732DA601D4ABB6A53601C4B00221A61E0
:101A70001A4B00229A60194B00229A61174803F012
:101A80005FFF034687F8333097F83330002B1BD1C4
:101A9000124803F0ADFF034687F8333097F8333030
:101AA000002B11D1362001F040F97B680F2B08D8AC
:101AB00000227968362001F01CF90A4A7B6813601D
:101AC00002E0012387F8333097F83330184638376F
:101AD000BD4680BD0038024083DE1B43FC0F002062
:101AE000001000400800002080B400AFFEE780B482
:101AF00000AFFEE780B400AFFEE780B400AFFEE7C2
:101B000080B400AFFEE780B400AF00BFBD465DF813
:101B1000047B704780B500AF024800F0C7FD00BFEE
:101B200080BD00BFA803002080B500AF024804F0CC
:101B3000DFFB00BF80BD00BF5405002080B500AFB3
:101B4000024804F0D5FB00BF80BD00BFDC050020CB
:101B500080B500AF024804F0CBFB00BF80BD00BFE2
:101B60004404002080B500AF024804F0C1FB00BF70
:101B700080BD00BFCC04002080B500AF024803F058
:101B8000AFFF00BF80BD00BFFC0F002080B500AFDD
:101B9000024803F0A5FF00BF80BD00BFF80300208E
:101BA00080B500AF024801F0EDFC00BF80BD00BF72
:101BB0002C5A002080B500AF024804F099FB00BF0A
:101BC00080BD00BF6406002080B400AF012318462A
:101BD000BD465DF8047B704780B483B000AF786089
:101BE0003960054B16221A604FF0FF3318460C3748
:101BF000BD465DF8047B704738B7002080B582B0E1
:101C000000AF78604FF0FF317868FFF7E5FFFEE73F
:101C100080B586B000AFF860B9607A6000237B6160
:101C20000AE0AFF300800146BB685A1CBA60CAB232
:101C30001A707B6901337B617A697B689A42F0DBB9
:101C40007B6818461837BD4680BD80B586B000AFAA
:101C5000F860B9607A6000237B6109E0BB685A1CB8
:101C6000BA601B781846AFF300807B6901337B6153
:101C70007A697B689A42F1DB7B6818461837BD4663
:101C800080BD80B483B000AF78604FF0FF3318465A
:101C90000C37BD465DF8047B704780B483B000AF5D
:101CA000786039603B684FF400525A600023184650
:101CB0000C37BD465DF8047B704780B483B000AF3D
:101CC0007860012318460C37BD465DF8047B7047E9
:101CD00080B485B000AFF860B9607A600023184620
:101CE0001437BD465DF8047B7047000080B400AF38
:101CF000074BD3F88830064A43F47003C2F88830A3
:101D0000034B044A9A6000BFBD465DF8047B7047F0
:101D100000ED00E000000408DFF834D00D480E4963
:101D20000E4A002302E0D458C4500433C4188C4235
:101D3000F9D30B4A0B4C002301E013600432A2429A
:101D4000FBD3FFF7D3FF17F01DF8FFF7F3FA704747
:101D50000000052000000020980000209CDA050803
:101D6000D80100203CB70020FEE780B483B000AF6C
:101D7000786039607B68002B0BD03B68DB68002BF8
:101D800007D03B689B68002B03D03B681B69002B86
:101D900002D14FF0FF3314E03B681A687B689A6009
:101DA0003B685A687B68DA603B68DA687B685A612E
:101DB0003B689A687B681A613B681A697B689A611C
:101DC000002318460C37BD465DF8047B704780B58C
:101DD00086B000AF78600023FB600023BB60002367
:101DE0007B6100233B617B685B68002B7CD17B6857
:101DF0009B68002B02D07B689B6898477B682022F9
:101E00001A6000237B611CE07B685B6907F10802B4
:101E10001221786998470346002B03DA6FF0040318
:101E20003B610BE0BB6803F01F037A699A4205D15E
:101E30007B687A691A6000233B6105E07B690133A6
:101E40007B617B691F2BDFD97B681B681F2B02D945
:101E50006FF002033B613B69002B45D17B681B6936
:101E60007A6810684FF40042002198470346002B1F
:101E700037DB7B685B697A68106807F1080200212C
:101E800098470346002B28DB7B689B6998470346ED
:101E9000FB601CE07B689B69984703461A46FB6819
:101EA000D31AB3F5FA7F0ED87B685B697A6810683D
:101EB00007F10802002198470346002B07DA6FF06C
:101EC00004033B6110E06FF001033B610CE0BB6871
:101ED00003F40043002BDDD106E06FF004033B6107
:101EE00002E06FF003033B613B69002B13D17B6879
:101EF0009B6998470346FB6000BF7B689B699847D6
:101F000003461A46FB68D31A41F288329342F4D949
:101F10007B6801225A603B6918461837BD4680BD70
:101F200080B584B000AF78600023FB607B685B699C
:101F30007A68106807F10C02012198470346002BCC
:101F400002DA6FF004036EE07B685B697A68106800
:101F500007F10C02012198470346002B02DA6FF0CB
:101F6000040360E0FB6803F00403002B01D10123AC
:101F700059E07B685B697A68106807F10C02002100
:101F800098470346002B02DA6FF004034BE0FB682E
:101F900003F48053002B1BD1FB6803F40053002B88
:101FA00006D0FB6803F48073002B01D002233AE0D3
:101FB000FB6803F40053002B01D0032333E0FB68DC
:101FC00003F48073002B01D004232CE005232AE0C6
:101FD0007B685B697A68106807F10C021F219847DB
:101FE0000346002B02DA6FF004031CE0FB6803F4E5
:101FF0008053002B01D1062315E0FB6803F01C037E
:10200000182B01D102230EE0FB6803F01C03082B00
:1020100001D1032307E0FB6803F01C03142B01D15B
:10202000042300E0052318461037BD4680BD80B567
:1020300000AF032000F052FE0F20FFF7DBFCFFF79C
:1020400011FA0023184680BD80B400AF064B1B7800
:102050001A46064B1B681344044A136000BFBD4672
:102060005DF8047B704700BF0C0000204810002082
:1020700080B400AF034B1B681846BD465DF8047B77
:10208000704700BF4810002080B584B000AF786072
:10209000FFF7EEFFB8607B68FB60FB68B3F1FF3FC2
:1020A00005D00A4B1B781A46FB681344FB6000BF3F
:1020B000FFF7DEFF0246BB68D31AFA689A42F7D8E8
:1020C00000BF00BF1037BD4680BD00BF0C00002020
:1020D00080B584B000AF78607B68002B01D101230C
:1020E000EDE07B6893F82030DBB2002B02D17868FA
:1020F000FFF7E0F97B681B681A687B681B6842F091
:1021000001021A60FFF7B4FFF86012E0FFF7B0FFBA
:102110000246FB68D31A0A2B0BD97B685B6A43F42F
:1021200000327B685A627B68052283F820200123F5
:10213000C5E07B681B685B6803F00103002BE5D0FA
:102140007B681B681A687B681B6822F002021A60B1
:10215000FFF78EFFF86012E0FFF78AFF0246FB6888
:10216000D31A0A2B0BD97B685B6A43F400327B6875
:102170005A627B68052283F8202001239FE07B6858
:102180001B685B6803F00203002BE5D17B681B7EB4
:10219000012B08D17B681B681A687B681B6842F0BA
:1021A00080021A6007E07B681B681A687B681B68FE
:1021B00022F080021A607B685B7E012B08D17B686D
:1021C0001B681A687B681B6842F040021A6007E0CF
:1021D0007B681B681A687B681B6822F040021A60E3
:1021E0007B689B7E012B08D17B681B681A687B6823
:1021F0001B6842F020021A6007E07B681B681A68BF
:102200007B681B6822F020021A607B68DB7E012B52
:1022100008D17B681B681A687B681B6822F0100273
:102220001A6007E07B681B681A687B681B6842F0CD
:1022300010021A607B681B7F012B08D17B681B682A
:102240001A687B681B6842F008021A6007E07B6826
:102250001B681A687B681B6822F008021A607B689A
:102260005B7F012B08D17B681B681A687B681B6841
:1022700042F004021A6007E07B681B681A687B68FA
:102280001B6822F004021A607B689A687B68DB682E
:102290001A437B681B691A437B685B6942EA030146
:1022A0007B685B685A1E7B681B680A43DA617B683F
:1022B00000225A627B68012283F8202000231846FE
:1022C0001037BD4680BD000080B487B000AF786095
:1022D00039607B681B687B617B6893F82030FB74F6
:1022E000FB7C012B03D0FB7C022B40F0BE80654BB6
:1022F0007B617B69D3F8003243F001027B69C3F84C
:1023000000227B69D3F8003223F47C527B69C3F846
:1023100000227B69D3F800223B685B6A1B021A43E8
:102320007B69C3F800223B685B6903F01F0301224D
:1023300002FA03F3FB607B69D3F81C22FB68DB43E2
:102340001A407B69C3F81C223B68DB69002B23D150
:102350007B69D3F80C22FB68DB431A407B69C3F826
:102360000C223B68DB6819043B685B689BB23A68E7
:10237000526919437B69483243F832103B689B68C5
:1023800019043B681B689AB23B685B690A43796928
:102390004833DB000B445A603B68DB69012B22D1D8
:1023A0007B69D3F80C22FB681A437B69C3F80C22C3
:1023B0003B681B6819043B685B689BB23A685269CA
:1023C00019437B69483243F832103B689B68190413
:1023D0003B68DB689AB23B685B690A4379694833BA
:1023E000DB000B445A603B689B69002B09D17B6979
:1023F000D3F80422FB68DB431A407B69C3F804224C
:1024000007E07B69D3F80422FB681A437B69C3F8B1
:1024100004223B681B69002B09D17B69D3F8142285
:10242000FB68DB431A407B69C3F8142207E07B6931
:10243000D3F81422FB681A437B69C3F814223B6863
:102440001B6A012B07D17B69D3F81C22FB681A4356
:102450007B69C3F81C227B69D3F8003223F00102A8
:102460007B69C3F80022002306E07B685B6A43F4C3
:1024700080227B685A62012318461C37BD465DF8EE
:10248000047B70470064004080B487B000AFF86000
:10249000B9607A603B60FB6893F82030FB75FB7D88
:1024A000012B03D0FB7D022B40F0F380BB68002B97
:1024B0000ED1FB681B68DB6803F00303002B16D109
:1024C000FB685B6A43F40012FB685A620123E7E091
:1024D000FB681B681B6903F00303002B07D1FB6833
:1024E0005B6A43F40012FB685A620123D8E0FB6880
:1024F0001A68BB681B331B0113441B6803F00402FA
:102500007B689A607B689B68002B0CD1FB681A681B
:10251000BB681B331B0113441B685B0DC3F30A022A
:102520007B681A600BE0FB681A68BB681B331B01F1
:1025300013441B68DB0823F060427B685A60FB6829
:102540001A68BB681B331B0113441B6803F00202AB
:102550007B68DA60FB681A68BB681B331B01134495
:1025600004331B6803F00F027B681A61FB681A686A
:10257000BB681B331B01134404331B681B0ADAB20C
:102580007B689A61FB681A68BB681B331B011344A4
:1025900004331B681B0C9AB27B685A61FB681A688B
:1025A000BB681B01134403F5DC731B68DAB23B689C
:1025B0001A70FB681A68BB681B01134403F5DC73CF
:1025C0001B681A0A3B680133D2B21A70FB681A689A
:1025D000BB681B01134403F5DC731B681A0C3B68D2
:1025E0000233D2B21A70FB681A68BB681B0113442D
:1025F00003F5DC731B681A0E3B680333D2B21A7002
:10260000FB681A68BB681B01134403F5DE731A6884
:102610003B680433D2B21A70FB681A68BB681B01AE
:10262000134403F5DE731B681A0A3B680533D2B204
:102630001A70FB681A68BB681B01134403F5DE734C
:102640001B681A0C3B680633D2B21A70FB681A6812
:10265000BB681B01134403F5DE731B681A0E3B684D
:102660000733D2B21A70BB68002B08D1FB681B6815
:10267000DA68FB681B6842F02002DA6007E0FB685A
:102680001B681A69FB681B6842F020021A6100236C
:1026900006E0FB685B6A43F48022FB685A62012310
:1026A00018461C37BD465DF8047B704780B58AB07C
:1026B00000AF786000237B627B681B685B693B62CC
:1026C0007B681B685B68FB617B681B689B68BB6100
:1026D0007B681B68DB687B617B681B681B693B61EF
:1026E0007B681B689B69FB603B6A03F00103002B5E
:1026F0007CD0BB6903F00103002B23D07B681B68EF
:1027000001229A60BB6903F00203002B03D07868B2
:1027100000F083F916E0BB6903F00403002B04D03A
:102720007B6A43F400637B620CE0BB6903F008033F
:10273000002B04D07B6A43F480537B6202E078680C
:1027400000F089F9BB6903F48073002B24D07B6807
:102750001B684FF480729A60BB6903F40073002B0E
:1027600003D0786800F063F916E0BB6903F4806376
:10277000002B04D07B6A43F400537B620CE0BB69FE
:1027800003F40063002B04D07B6A43F480437B6234
:1027900002E0786800F069F9BB6903F48033002B2C
:1027A00024D07B681B684FF480329A60BB6903F4C5
:1027B0000033002B03D0786800F043F916E0BB69C2
:1027C00003F48023002B04D07B6A43F400437B6234
:1027D0000CE0BB6903F40023002B04D07B6A43F4B4
:1027E00080337B6202E0786800F049F93B6A03F0CD
:1027F0000803002B0CD07B6903F01003002B07D0DB
:102800007B6A43F400737B627B681B681022DA608A
:102810003B6A03F00403002B0BD07B6903F0080331
:10282000002B06D07B681B680822DA60786800F00D
:1028300030F93B6A03F00203002B09D07B681B6868
:10284000DB6803F00303002B02D07868FEF7C3FCBB
:102850003B6A03F04003002B0CD03B6903F01003EC
:10286000002B07D07B6A43F480637B627B681B6824
:1028700010221A613B6A03F02003002B0BD03B6946
:1028800003F00803002B06D07B681B6808221A613E
:10289000786800F012F93B6A03F01003002B09D0AE
:1028A0007B681B681B6903F00303002B02D0786868
:1028B00000F0F9F83B6A03F40033002B0BD0FB69FE
:1028C00003F01003002B06D07B681B6810225A60AF
:1028D000786800F0FCF83B6A03F48033002B0BD0DF
:1028E000FB6903F00803002B06D07B681B680822F5
:1028F0005A60786800F0F5F83B6A03F40043002B57
:102900007BD0FB6903F00403002B72D03B6A03F415
:102910008073002B08D0FB6803F00103002B03D069
:102920007B6A43F001037B623B6A03F40073002B74
:1029300008D0FB6803F00203002B03D07B6A43F04E
:1029400002037B623B6A03F48063002B08D0FB68C0
:1029500003F00403002B03D07B6A43F004037B6283
:102960003B6A03F40063002B43D0FB6803F0700361
:10297000002B3ED0FB6803F07003602B2BD0602B44
:102980002ED8502B22D0502B2AD8402B19D0402B98
:1029900026D8302B10D0302B22D8102B02D0202B51
:1029A00005D01DE07B6A43F008037B6219E07B6A77
:1029B00043F010037B6214E07B6A43F020037B62E8
:1029C0000FE07B6A43F040037B620AE07B6A43F0DE
:1029D00080037B6205E07B6A43F480737B6200E0E6
:1029E00000BF7B681B689A697B681B6822F07002D5
:1029F0009A617B681B6804225A607B6A002B08D0AE
:102A00007B685A6A7B6A1A437B685A62786800F06E
:102A100072F800BF2837BD4680BD80B483B000AFD8
:102A2000786000BF0C37BD465DF8047B704780B40A
:102A300083B000AF786000BF0C37BD465DF8047B03
:102A4000704780B483B000AF786000BF0C37BD46DC
:102A50005DF8047B704780B483B000AF786000BF3E
:102A60000C37BD465DF8047B704780B483B000AF7F
:102A7000786000BF0C37BD465DF8047B704780B4BA
:102A800083B000AF786000BF0C37BD465DF8047BB3
:102A9000704780B483B000AF786000BF0C37BD468C
:102AA0005DF8047B704780B483B000AF786000BFEE
:102AB0000C37BD465DF8047B704780B483B000AF2F
:102AC000786000BF0C37BD465DF8047B704780B46A
:102AD00083B000AF786000BF0C37BD465DF8047B63
:102AE000704780B483B000AF786000BF0C37BD463C
:102AF0005DF8047B704780B483B000AF786000BF9E
:102B00000C37BD465DF8047B7047000080B485B08B
:102B100000AF78607B6803F00703FB600B4BDB685A
:102B2000BB60BA684FF6FF031340BB60FB681A0234
:102B3000BB681A43064B1343BB60044ABB68D360AF
:102B400000BF1437BD465DF8047B704700ED00E020
:102B50000000FA0580B400AF044BDB681B0A03F0E9
:102B600007031846BD465DF8047B704700ED00E0A2
:102B700080B483B000AF0346FB7197F90730002B98
:102B80000BDBFB7903F01F02074997F907305B095C
:102B9000012000FA02F241F8232000BF0C37BD46A5
:102BA0005DF8047B704700BF00E100E080B483B0B3
:102BB00000AF0346FB7197F90730002B12DBFB795E
:102BC00003F01F020A4997F907305B09012000FA58
:102BD00002F2203341F82320BFF34F8F00BFBFF331
:102BE0006F8F00BF00BF0C37BD465DF8047B704798
:102BF00000E100E080B483B000AF03463960FB71B0
:102C000097F90730002B0ADB3B68DAB20C4997F9D9
:102C100007301201D2B20B4483F800230AE03B686C
:102C2000DAB20849FB7903F00F03043B1201D2B278
:102C30000B441A7600BF0C37BD465DF8047B704725
:102C400000E100E000ED00E080B489B000AFF86082
:102C5000B9607A60FB6803F00703FB61FB69C3F1AD
:102C60000703042B28BF0423BB61FB690433062B35
:102C700002D9FB69033B00E000237B614FF0FF3288
:102C8000BB6902FA03F3DA43BB681A407B699A40D6
:102C90004FF0FF317B6901FA03F3D9437B680B40A6
:102CA000134318462437BD465DF8047B7047000087
:102CB00080B400AFBFF34F8F00BF064BDB6803F457
:102CC000E0620449044B1343CB60BFF34F8F00BF56
:102CD00000BFFDE700ED00E00400FA0580B582B01A
:102CE00000AF78607868FFF711FF00BF0837BD4676
:102CF00080BD80B586B000AF0346B9607A60FB73D3
:102D000000237B61FFF726FF78617A68B9687869EC
:102D1000FFF79AFF024697F90F3011461846FFF762
:102D200069FF00BF1837BD4680BD80B582B000AFD7
:102D30000346FB7197F907301846FFF719FF00BFEC
:102D40000837BD4680BD80B582B000AF0346FB7139
:102D500097F907301846FFF729FF00BF0837BD462F
:102D600080BD80B500AFFFF7A3FF80B584B000AF92
:102D700078607B689B6DFB60FFF77AF9B8607B68D1
:102D800093F83530DBB2022B08D07B6880225A657D
:102D90007B68002283F83420012352E07B681B68A3
:102DA0001A687B681B6822F016021A607B681B6831
:102DB0005A697B681B6822F080025A617B681B6C31
:102DC000002B03D17B689B6C002B07D07B681B68B2
:102DD0001A687B681B6822F008021A607B681B680F
:102DE0001A687B681B6822F001021A6013E0FFF783
:102DF0003FF90246BB68D31A052B0CD97B68202209
:102E00005A657B68032283F835207B68002283F8AB
:102E10003420032315E07B681B681B6803F0010363
:102E2000002BE4D17B68DB6D3F229A40FB689A60FF
:102E30007B68012283F835207B68002283F83420E8
:102E4000002318461037BD4680BD80B483B000AF64
:102E500078607B6893F83530DBB2022B04D07B6856
:102E600080225A6501230CE07B68052283F8352017
:102E70007B681B681A687B681B6822F001021A6075
:102E8000002318460C37BD465DF8047B70470000F0
:102E900080B584B000AF78607B68002B01D101233E
:102EA0006AE07B68D3F88430002B06D17B6823224C
:102EB000C3F88420786805F055FA314B5B6C304AD2
:102EC00043F4804353642E4B5B6C03F48043BB603C
:102ED000BB682C4B5B682B4A23F400035360294BDF
:102EE0005A687B689B68274913434B60254B5B6896
:102EF0007B681B6803F580531B687A68126843F08F
:102F0000010302F580521360FFF7B2F8F86011E098
:102F1000FFF7AEF80246FB68D31AB3F5FA7F09D97A
:102F20007B680422C3F888207B68E022C3F88420F1
:102F3000012321E07B681B6803F580531B6803F0C5
:102F40000103002BE4D1786800F04CFF786800F0B2
:102F5000F3FF786801F049F87B685B681A46002146
:102F6000786800F0B1FF7B680022C3F888207B6896
:102F70001022C3F88420002318461037BD4680BDB8
:102F8000003802400038014080B584B000AF78605E
:102F90007B68D3F88430102B7BD17B682322C3F865
:102FA00084207B6801229A657B681B68DA6B7B68EA
:102FB0001B6842F40272DA637B681B68D3F80C1159
:102FC0007B681A68354B0B43C2F80C317B681B6871
:102FD000D3F810217B681B6842F40312C3F8102158
:102FE0007B680422DA66786800F0FCF97B681B686D
:102FF0001A687B681B6842F008021A607B681B68CD
:103000001B68FB600120FFF73FF87B681B68FA68CC
:103010001A607B681B681A687B681B6842F00402B0
:103020001A607B681B681B68FB600120FFF72CF8A7
:103030007B681B68FA681A60786800F074FD7B682A
:103040001B6803F580539B697A68126843F4005348
:1030500002F5805293617B681B6803F580539B697E
:103060007A68126843F0020302F5805293617B682C
:103070001B6803F58053D9697B681A68084B0B43BA
:1030800002F58052D3617B682322C3F88420002399
:1030900000E0012318461037BD4680BD60000200E5
:1030A000C1A0010080B586B000AF78607B68D3F81E
:1030B0008430232B6ED17B682322C3F884207B6865
:1030C0001B6803F58053D9697B681A68344B0B4041
:1030D00002F58052D3617B681B6803F580539B69BE
:1030E0007A68126823F4005302F5805293617B687A
:1030F0001B6803F580539B697A68126823F002030A
:1031000002F5805293617B681B681A687B681B68B4
:1031100022F004021A607B681B681B683B61012077
:10312000FEF7B2FF7B681B683A691A60786800F0A6
:10313000FAFC7B681B681A687B681B6822F008022F
:103140001A607B681B681B683B610120FEF79CFFCF
:103150007B681B683A691A6000237B610EE07B681C
:103160007A69123253F82230FB60FB685B6843F0E7
:103170000042FB685A607B6901337B617B69032BEA
:10318000EDD97B6800229A657B681022C3F8842001
:10319000002300E0012318461837BD4680BD00BF5C
:1031A0003E5FFEFF80B582B000AF786039603B685B
:1031B000002B09D17B68D3F8883043F001027B688B
:1031C000C3F88820012345E07B68D3F88430232BA3
:1031D0003FD13B685A6B7B68DA63012239687868B3
:1031E00000F070FF0346002B09D07B68D3F88830CD
:1031F00043F002027B68C3F8882001232AE0BFF372
:103200004F8F00BF7B689B6A5A1C7B689A627B6801
:103210009B6A032B04D97B689B6A1A1F7B689A629E
:103220007B681B6803F580535B6903F00403002B84
:103230000DD07B681B6803F580531A460423536145
:103240007B681B6803F580531A46002353600023F4
:1032500000E0012318460837BD4680BD80B588B020
:1032600000AF7860396000237B610023FB733B680B
:10327000002B09D17B68D3F8883043F001027B68CA
:10328000C3F888200123A8E07B68D3F88430232B7F
:1032900001D00123A1E07B68DB6DFB617B68FA69EB
:1032A000123253F82230BB617B68DB6EC3F104033A
:1032B000BB606AE0BB691B6803F48073002B07D016
:1032C000BB699A697B689A67BB69DA697B685A67E8
:1032D000BB691B6803F40073002B03D17B68DB6FB1
:1032E000002B40D0BB691B6803F40073002B05D092
:1032F0007B6800221A667B6800225A667B685B69DD
:103300003B61BB691B6803F48073002B0CD0BB6965
:103310001B681B0CC3F30D03043B3B61BB691A68BC
:103320007B681A670123FB73BB699A68BB691A62E1
:103330007B6803F17C007B6803F18001BB691B6A39
:103340001A463B699BB205F04BF97B681B6E5A1C11
:103350007B681A667B685A6E3B691A447B685A66BA
:10336000BB6900221A62FB690133FB61FB69032B15
:1033700002D9FB69043BFB617B68FA69123253F89E
:103380002230BB617B6901337B61BB691B68002B09
:1033900006DB7A69BB689A4202D2FB7B002B89D09C
:1033A0007B68DA6E7B691A447B68DA667B68DB6E61
:1033B000002B02D0786800F015F87B68FA69DA65AE
:1033C000FB7B012B08D17B68DA6F3B681A607B6856
:1033D0000022DA67002300E0012318462037BD46AB
:1033E00080BD000080B588B000AF78600023FB602E
:1033F0000123FB747B689B6EFB617B68FA69123268
:1034000053F822307B617B68DB6EBB6140E07B69F7
:103410001B6A002B12D107F10C03184605F0B0F817
:10342000FB68002B02D10023FB7407E0FB681A46FF
:103430007B691A62FB681A467B699A60FB7C002BE9
:1034400026D07B689B6D002B03D17B691E4A5A6096
:1034500003E07B6944F2F8525A60BFF35F8F00BF0C
:103460007B691B6843F000427B691A60FB6901338A
:10347000FB61FB69032B02D9FB69043BFB617B68A1
:10348000FA69123253F822307B61BB69013BBB61A0
:10349000BB69002B02D0FB7C002BB8D17B68DB6EB4
:1034A000BA699A420CD07B681B6803F580531A46B0
:1034B000002393607B68FA699A667B68BA69DA666A
:1034C00000BF2037BD4680BDF845008080B586B07E
:1034D00000AF78607B681833BB60BB689B6A7B6118
:1034E000BB68DB6A3B610123FB733FE00123BB73D5
:1034F0007B69013B7B61BA683B6904339B001344E1
:103500005B68002B06D13B69013303F003033B6189
:103510000023BB73BB7B002B28D07B68D9683A693A
:1035200013469B001344DB000B441B68002B1BDB82
:10353000BA683B6904339B0013445B68184605F086
:1035400091F8BA683B6904339B00134400225A6027
:103550003B69013303F003033B61BB687A699A62FC
:10356000BB683A69DA6201E00023FB737B69002BD8
:1035700002D0FB7B002BB9D1002318461837BD467B
:1035800080BD000080B582B000AF78607B681B68AA
:1035900003F580535B6903F04003402B12D17B6835
:1035A0001B6803F58053DB6903F04003402B09D10E
:1035B0007B681B6803F580531A46504B536178684B
:1035C00004F08EFB7B681B6803F580535B6903F096
:1035D0000103012B13D17B681B6803F58053DB6962
:1035E00003F00103012B0AD17B681B6803F58053AC
:1035F0001A464FF001135361786804F081FB7B6831
:103600001B6803F580535B6903F40043B3F5004F77
:103610004CD17B681B6803F58053DB6903F40043DE
:10362000B3F5004F42D17B68D3F8883043F00802ED
:103630007B68C3F888207B681B6803F580535B694F
:1036400003F40053B3F5005F1AD17B681B6803F5E0
:1036500080535A692A4B13407A68C2F88C307B68D1
:103660001B6803F58053DB697A68126823F4C03362
:1036700002F58052D3617B68E022C3F8842012E017
:103680007B681B6803F580535A6948F280631340D6
:103690007A68C2F88C307B681B6803F580531A4641
:1036A00048F280635361786804F03AFB7B681B68DA
:1036B0009B6B03F00803082B0ED17B681B68DB6A49
:1036C00003F060027B68C3F89420786800F01CF86F
:1036D0007B680022C3F894200A4B5B6903F4002343
:1036E000002B06D0074B4FF400225A61786800F097
:1036F00015F800BF0837BD4680BD00BF400001007F
:1037000000207E00003C014080B483B000AF7860B0
:1037100000BF0C37BD465DF8047B704780B483B0B2
:1037200000AF786000BF0C37BD465DF8047B704782
:1037300080B586B000AFF860B9607A603B60FB6826
:103740001B681B697B617B6903F01C037B61BB68A1
:10375000DB029BB27A6913437B617B689B0103F4B4
:10376000F8637A6913437B617B6923F002037B6111
:103770007B6943F001037B61FB681B687A691A610E
:10378000FEF776FC38610DE0FEF772FC02463B69FD
:10379000D31AB3F5803F01D3012310E0FB681B6807
:1037A0001B697B617B6903F00103002BECD1FB6893
:1037B0001B685B699BB21A463B681A600023184677
:1037C0001837BD4680BD80B586B000AFF860B960DF
:1037D0007A603B60FB681B681B697B617B6903F057
:1037E0001C037B61BB68DB029BB27A6913437B617C
:1037F0007B689B0103F4F8637A6913437B617B69FF
:1038000043F002037B617B6943F001037B613B680A
:103810009AB2FB681B685A61FB681B687A691A6177
:10382000FEF726FC38610DE0FEF722FC02463B69FC
:10383000D31AB3F5803F01D3012309E0FB681B686D
:103840001B697B617B6903F00103002BECD1002332
:1038500018461837BD4680BD80B483B000AF78608D
:1038600039603B68002B01D10123D9E07B681B68DC
:103870001B6803F01003002B14BF01230023DBB2ED
:103880001A463B6883F828207B681B681B6803F096
:1038900060023B685A627B681B681B6803F4007314
:1038A000002B0CBF01230023DBB21A463B6883F8D0
:1038B00020207B681B681B6803F48033002B14BF37
:1038C00001230023DBB21A463B68DA777B681B686A
:1038D0001B6803F40053002B0CBF01230023DBB251
:1038E0001A463B689A777B681B681B6803F4805311
:1038F000002B14BF01230023DBB21A463B681A7762
:103900007B681B681B6803F400623B689A617B68F4
:103910001B681B6803F480423B685A617B681B6824
:103920001B6803F48003002B0CBF01230023DBB2D0
:103930001A463B685A747B681B681B6803F40003D3
:10394000002B0CBF01230023DBB21A463B681A741C
:103950007B681B681B6803F08003002B14BF0123E6
:103960000023DBB21A463B68DA737B681B681B686E
:1039700003F460223B689A607B681B681B6803F451
:103980008063002B14BF01230023DBB21A463B687F
:103990001A717B681B689B6903F00203002B14BF3C
:1039A00001230023DBB21A463B6883F854207B686E
:1039B0001B689B6903F08003002B0CBF01230023CD
:1039C000DBB21A463B6883F84C207B681B689B6916
:1039D00003F030023B681A657B681B689B691B0C0F
:1039E0009AB23B689A647B681B689B6903F0040386
:1039F000002B14BF01230023DBB21A463B6883F877
:103A000056207B681B689B6903F00803002B14BFDA
:103A100001230023DBB21A463B6883F855200023BC
:103A200018460C37BD465DF8047B704780B582B000
:103A300000AF786039603B68002B01D101230BE0B7
:103A40007B68D3F88430102B05D13968786800F092
:103A50008FF8002300E0012318460837BD4680BDDB
:103A600080B584B000AF78607B681B681B69FB6021
:103A7000FB6823F01C03FB6001F0C4FAB860BB686C
:103A80001D4A934208D9BB681C4A934204D8FB687C
:103A900043F00803FB6027E0BB68184A934208D94B
:103AA000BB68174A934204D2FB6843F00C03FB60E7
:103AB0001AE0BB68124A934203D3BB68114A93428F
:103AC00011D9BB680F4A934208D9BB680E4A93428A
:103AD00004D8FB6843F00403FB6005E0FB6843F097
:103AE0001003FB6000E000BF7B681B68FA681A6186
:103AF00000BF1037BD4680BDFF2C3101BF0E16023E
:103B000000879303FFE0F5057FD1F00880B483B010
:103B100000AF78607B68D3F88C3018460C37BD4610
:103B20005DF8047B704780B584B000AF78600023F7
:103B3000FB607B681B6803F580539B697A68126899
:103B400043F4801302F5805293617B681B6803F590
:103B500080539B69FB600120FEF796FA7B681A6828
:103B6000FB6802F58052936100BF1037BD4680BDEF
:103B700080B584B000AF786039607B681B681B68D3
:103B8000FB60FA68514B1340FB603B681B7C002BC9
:103B900002D14FF4000200E000223B685B7C002B66
:103BA00002D14FF4800300E000231A433B689B6876
:103BB0001A433B68DB7F1B041A433B685B69134372
:103BC0003A68927F002A02D14FF4005200E00022AE
:103BD0001A433B681B7F1B031A433B689B691A43CC
:103BE0003B681B799B0213433A6892F82020002A15
:103BF00002D14FF4007200E000221A433B68DB7BE5
:103C0000DB011A433B685B6A1A433B6893F8283030
:103C10001B011343FA681343FB607B681B68FA6857
:103C20001A607B681B681B68FB600120FEF72CFA9A
:103C30007B681B68FA681A607B681B689B69FB607D
:103C4000FA684FF641731340FB603B689B6C1B04A2
:103C50003A6892F84C20002A01D1802200E000222C
:103C60001A433B681B6D13433A6892F85520012AAA
:103C700001D1082200E0002213433A6892F856204E
:103C8000012A01D1042200E0002213433A6892F88D
:103C90005420012A01D1022200E000221343FA68D5
:103CA0001343FB607B681B68FA689A617B681B683A
:103CB0009B69FB600120FEF7E7F97B681B68FA68E7
:103CC0009A6100BF1037BD4680BD00BF0F8120FF45
:103CD00080B584B000AF786039607B681B6803F5FD
:103CE00080539B69FB60FA683D4B1340FB603B6867
:103CF0001B7B002B02D14FF0806200E000223B686A
:103D00005B7B5B0613433A68527F002A02D14FF473
:103D1000801200E000221A433B689B7B5B051A433C
:103D20003B685B691A433B681B7FDB011A433B68B6
:103D30009B7F9B011A433B681B6A1A433B6893F8BD
:103D400024309B001343FA681343FB607B681B68B5
:103D500003F580531A46FB6893617B681B6803F583
:103D600080539B69FB600120FEF78EF97B681B681E
:103D700003F580531A46FB6893613B681B795A062A
:103D80003B689B681A433B689B691A433B681B6905
:103D90001A433B6893F82530DB011A433B689B6A62
:103DA0009B001A433B681B6813437A68126843F40C
:103DB000000302F5805213607B681B6803F5805393
:103DC0001B68FB600120FEF75FF97B681B6803F549
:103DD00080531A46FB68136000BF1037BD4680BD94
:103DE000233FDEF880B5A6B000AF7860012387F8E6
:103DF0004430012387F845300023FB63002387F814
:103E00005330012387F85230002387F850300123C4
:103E100087F83830002387F85430002387F8433080
:103E20000023BB65002387F85C300023FB67002379
:103E300087F880300023C7F88430002387F88A3061
:103E4000002387F888304FF48043BB644FF400634D
:103E5000FB64002387F8893007F13403194678683A
:103E6000FFF786FE01233B7501237B75012387F84D
:103E700025300123BB750023FB61002387F8243024
:103E8000002387F826300023BB62012387F82C30FB
:103E900001233B734FF480333B614FF480033B625B
:103EA0004FF40053BB61012387F82D3000233B639F
:103EB0000023BB6007F1080319467868FFF708FF85
:103EC00000BF9837BD4680BD80B487B000AFF860B2
:103ED000B9607A607B6805331B781B027A6804320C
:103EE000127813437B61BA68114B13441A467B69FD
:103EF00013607B6803331B781A067B6802331B78D8
:103F00001B041A437B6801331B781B0213437A6836
:103F1000127813437B61BA68064B13441A467B69D7
:103F2000136000BF1C37BD465DF8047B704700BFBF
:103F3000408002404480024080B485B000AF786089
:103F40000023FB603EE07B68D968FA6813469B005B
:103F50001344DB000B44BB60BB6800221A60BB68E3
:103F600000225A60BB6800229A60BB680022DA60B7
:103F7000B9687B68FA68063243F82210BB681B6890
:103F800043F48012BB681A60FB68022B0CD87B6874
:103F9000D968FB685A1C13469B001344DB000B4492
:103FA0001A46BB68DA6004E07B68DB681A46BB68C7
:103FB000DA60BB681B6843F44002BB681A60FB68A8
:103FC0000133FB60FB68032BBDD97B6800229A623A
:103FD0007B68DA687B681B6803F580531A6100BF51
:103FE0001437BD465DF8047B704780B485B000AFE0
:103FF00078600023FB6046E07B681969FA68134625
:104000009B001344DB000B44BB60BB6800221A60BA
:10401000BB6800225A60BB6800229A60BB6800221D
:10402000DA60BB6800221A62BB6800225A62BB6871
:104030004FF000421A60BB6844F2F8525A60BB6805
:104040005B6823F00042BB685A60B9687B68FA6815
:10405000123243F82210FB68022B0CD87B681969D6
:10406000FB685A1C13469B001344DB000B441A46A2
:10407000BB68DA6004E07B681B691A46BB68DA60DB
:10408000FB680133FB60FB68032BB5D97B6800221A
:10409000DA657B6800221A667B6800229A667B6874
:1040A0000022DA667B6800229A657B681A697B6861
:1040B0001B6803F58053DA6000BF1437BD465DF816
:1040C000047B704780B48DB000AFF860B9607A604F
:1040D000FB6818337B617B691B69FB627B691B6929
:1040E0003B6100237B627B69FA6A53F822303B62B2
:1040F000BB689B68FB610023BB613B6A1B6803F0E4
:104100000043B3F1004F07D07A69FB6A04339B0088
:1041100013445B68002B01D00223FFE07B6A01336C
:104120007B62FB691B681A463B6A9A603B6A5A6865
:104130007D4B1340FA6952681A433B6A5A60BB6868
:104140001B6803F00103002B08D03B6A1B6823F4B3
:104150004002BB685B691A433B6A1A60BB681B6814
:1041600003F02003002B08D03B6A1B6823F0406259
:10417000BB681B691A433B6A1A60BB681B6803F083
:104180000403002B05D03B6A1B6843F080023B6AA6
:104190001A603B6A1B6843F080523B6A1A60BFF3A7
:1041A0005F8F00BF3B6A1B6843F000423B6A1A60A6
:1041B00082E03B6A1B6823F000523B6A1A607B680E
:1041C000002B06D03B6A1B6843F080423B6A1A60B2
:1041D00005E03B6A1B6823F080423B6A1A60FB6A79
:1041E0000133FB62FB6A032B02D9FB6A043BFB62CF
:1041F0007B69FA6A53F822303B623B6A1B6823F002
:1042000080523B6A1A603B6A1B6803F00043B3F1BB
:10421000004F07D07A69FB6A04339B0013445B6844
:10422000002B29D03B69FB627B69FA6A53F8223084
:104230003B620023BB6219E0BFF35F8F00BF3B6AA4
:104240001B6823F000423B6A1A60FB6A0133FB6281
:10425000FB6A032B02D9FB6A043BFB627B69FA6AA7
:1042600053F822303B62BB6A0133BB62BA6A7B6A95
:104270009A42E1D3022351E07B6A01337B62FB69FE
:104280009B68FB61FB691B681A463B6A9A603B6A44
:104290005A68254B1340FA6952681A433B6A5A60C0
:1042A000BB690133BB61BFF35F8F00BF3B6A1B6813
:1042B00043F000423B6A1A60FB699B68002B7FF465
:1042C00078AF7B68002B06D03B6A1B6843F08042C6
:1042D0003B6A1A6005E03B6A1B6823F080423B6A38
:1042E0001A603B6A1B6843F000523B6A1A607B69A4
:1042F0005A6A7969FB6A04339B000B445A607B69F4
:10430000FA6A1A6172B600BF7B699A6ABB69134484
:104310005A1C7B699A6262B600BF00231846343784
:10432000BD465DF8047B704700E0FFFF80B489B0B4
:1043300000AF786039600023FB6100237B610023BC
:104340003B610023BB610023FB6175E10122FB6936
:1043500002FA03F37B613B681B687A6913403B6197
:104360003A697B699A4240F064813B685B6803F07C
:104370000303012B05D03B685B6803F00303022BAA
:1043800030D17B689B68BB61FB695B00032202FA4A
:1043900003F3DB43BA691340BB613B68DA68FB692E
:1043A0005B0002FA03F3BA691343BB617B68BA6925
:1043B0009A607B685B68BB610122FB6902FA03F3C8
:1043C000DB43BA691340BB613B685B681B0903F0C0
:1043D0000102FB6902FA03F3BA691343BB617B680C
:1043E000BA695A603B685B6803F00303032B17D07C
:1043F0007B68DB68BB61FB695B00032202FA03F3A5
:10440000DB43BA691340BB613B689A68FB695B0098
:1044100002FA03F3BA691343BB617B68BA69DA60D5
:104420003B685B6803F00303022B23D1FB69DA08C6
:104430007B68083253F82230BB61FB6903F0070345
:104440009B000F2202FA03F3DB43BA691340BB61FE
:104450003B681A69FB6903F007039B0002FA03F348
:10446000BA691343BB61FB69DA087B680832B96932
:1044700043F822107B681B68BB61FB695B00032269
:1044800002FA03F3DB43BA691340BB613B685B6824
:1044900003F00302FB695B0002FA03F3BA691343FA
:1044A000BB617B68BA691A603B685B6803F44033A0
:1044B000002B00F0BE80664B5B6C654A43F4804382
:1044C0005364634B5B6C03F48043FB60FB68614A9D
:1044D000FB699B08023352F82330BB61FB6903F090
:1044E00003039B000F2202FA03F3DB43BA69134074
:1044F000BB617B68584A934237D07B68574A9342E6
:1045000031D07B68564A93422BD07B68554A934200
:1045100025D07B68544A93421FD07B68534A93420C
:1045200019D07B68524A934213D07B68514A934218
:104530000DD07B68504A934207D07B684F4A934224
:1045400001D1092312E00A2310E008230EE007231B
:104550000CE006230AE0052308E0042306E0032319
:1045600004E0022302E0012300E00023FA6902F0E4
:10457000030292009340BA691343BB613549FB695A
:104580009B080233BA6941F823203D4B9B68BB610D
:104590003B69DB43BA691340BB613B685B6803F46A
:1045A0008013002B03D0BA693B691343BB61344AC3
:1045B000BB699360324BDB68BB613B69DB43BA6923
:1045C0001340BB613B685B6803F40013002B03D00E
:1045D000BA693B691343BB61294ABB69D360284B65
:1045E0005B68BB613B69DB43BA691340BB613B68F5
:1045F0005B6803F40033002B03D0BA693B691343B3
:10460000BB611F4ABB6953601D4B1B68BB613B69A3
:10461000DB43BA691340BB613B685B6803F48033DA
:10462000002B03D0BA693B691343BB61144ABB69D1
:104630001360FB690133FB61FB690F2B7FF686AECC
:1046400000BF00BF2437BD465DF8047B704700BF44
:1046500000380240003801400000024000040240DF
:1046600000080240000C024000100240001402400A
:1046700000180240001C02400020024000240240BA
:10468000003C014080B483B000AF78600B467B8073
:1046900013467B707B78002B03D07A887B689A6105
:1046A00003E07B881A047B689A6100BF0C37BD4623
:1046B0005DF8047B7047000080B582B000AF002336
:1046C0007B60234B1B6C224A43F080531364204BC6
:1046D0001B6C03F080533B603B681E4B1B681D4AFC
:1046E00043F480331360FDF7C3FC786009E0FDF705
:1046F000BFFC02467B68D31AB3F57A7F01D9032346
:1047000022E0144B5B6803F48033B3F5803FEED1B5
:10471000104B1B680F4A43F400331360FDF7A8FCED
:10472000786009E0FDF7A4FC02467B68D31AB3F574
:104730007A7F01D9032307E0064B5B6803F400335B
:10474000B3F5003FEED1002318460837BD4680BDC3
:10475000003802400070004080B586B000AF78603D
:104760000023FB757B68002B01D1012391E27B685C
:104770001B6803F00103002B00F08780964B9B68B9
:1047800003F00C03042B0CD0934B9B6803F00C0339
:10479000082B12D1904B5B6803F48003B3F5800FB4
:1047A0000BD18D4B1B6803F40033002B6CD07B685E
:1047B0005B68002B68D101236BE27B685B68B3F513
:1047C000803F06D1844B1B68834A43F480331360D7
:1047D0002EE07B685B68002B0CD17F4B1B687E4A08
:1047E00023F4803313607C4B1B687B4A23F48023C3
:1047F00013601DE07B685B68B3F5A02F0CD1764B8E
:104800001B68754A43F480231360734B1B68724A1C
:1048100043F4803313600BE06F4B1B686E4A23F444
:10482000803313606C4B1B686B4A23F48023136046
:104830007B685B68002B13D0FDF71AFC386108E039
:10484000FDF716FC02463B69D31A642B01D90323FA
:104850001FE2614B1B6803F40033002BF0D014E01F
:10486000FDF706FC386108E0FDF702FC02463B69F3
:10487000D31A642B01D903230BE2574B1B6803F4B3
:104880000033002BF0D100E000BF7B681B6803F011
:104890000203002B69D0504B9B6803F00C03002BE4
:1048A0000BD04D4B9B6803F00C03082B1CD14A4BDB
:1048B0005B6803F48003002B16D1474B1B6803F0A1
:1048C0000203002B05D07B68DB68012B01D001239C
:1048D000DFE1414B1B6823F0F8027B681B69DB00BA
:1048E0003D4913430B6040E07B68DB68002B23D01D
:1048F000394B1B68384A43F001031360FDF7B8FBDE
:10490000386108E0FDF7B4FB02463B69D31A022B7D
:1049100001D90323BDE1304B1B6803F00203002BD8
:10492000F0D02D4B1B6823F0F8027B681B69DB007D
:10493000294913430B6018E0274B1B68264A23F0D4
:1049400001031360FDF794FB386108E0FDF790FB6D
:1049500002463B69D31A022B01D9032399E11E4B6E
:104960001B6803F00203002BF0D17B681B6803F087
:104970000803002B38D07B685B69002B19D0164BDD
:104980005B6F154A43F001035367FDF771FB386114
:1049900008E0FDF76DFB02463B69D31A022B01D9F3
:1049A000032376E10C4B5B6F03F00203002BF0D086
:1049B0001AE0094B5B6F084A23F001035367FDF7C8
:1049C00057FB38610AE0FDF753FB02463B69D31AF7
:1049D000022B03D903235CE100380240914B5B6F4B
:1049E00003F00203002BEED17B681B6803F0040385
:1049F000002B00F0A4808B4B1B6C03F08053002B2A
:104A00000DD1884B1B6C874A43F080531364854B50
:104A10001B6C03F08053BB60BB680123FB75824BAA
:104A20001B6803F48073002B18D17F4B1B687E4AF0
:104A300043F480731360FDF71BFB386108E0FDF75A
:104A400017FB02463B69D31A642B01D9032320E1EB
:104A5000754B1B6803F48073002BF0D07B689B6858
:104A6000012B06D16F4B1B6F6E4A43F00103136796
:104A70002DE07B689B68002B0CD16A4B1B6F694A49
:104A800023F001031367674B1B6F664A23F004038F
:104A900013671CE07B689B68052B0CD1614B1B6F77
:104AA000604A43F0040313675E4B1B6F5D4A43F09B
:104AB000010313670BE05B4B1B6F5A4A23F00103A2
:104AC0001367584B1B6F574A23F0040313677B6827
:104AD0009B68002B15D0FDF7CBFA38610AE0FDF793
:104AE000C7FA02463B69D31A41F28832934201D990
:104AF0000323CEE04B4B1B6F03F00203002BEED0E1
:104B000014E0FDF7B5FA38610AE0FDF7B1FA0246A4
:104B10003B69D31A41F28832934201D90323B8E0AA
:104B2000404B1B6F03F00203002BEED1FB7D012BEA
:104B300005D13C4B1B6C3B4A23F0805313647B68CC
:104B40009B69002B00F0A480364B9B6803F00C039C
:104B5000082B6BD07B689B69022B49D1314B1B68BA
:104B6000304A23F080731360FDF782FA386108E061
:104B7000FDF77EFA02463B69D31A022B01D90323C3
:104B800087E0284B1B6803F00073002BF0D17B6893
:104B9000DA697B681B6A1A437B685B6A9B011A436C
:104BA0007B689B6A5B08013B1B041A437B68DB6ADA
:104BB0001B0613431B4A43F000535360194B1B68F9
:104BC000184A43F080731360FDF752FA386108E029
:104BD000FDF74EFA02463B69D31A022B01D9032393
:104BE00057E0104B1B6803F00073002BF0D04FE030
:104BF0000C4B1B680B4A23F080731360FDF738FAE7
:104C0000386108E0FDF734FA02463B69D31A022BFB
:104C100001D903233DE0034B1B6803F00073002B15
:104C2000F0D135E000380240007000401B4B5B685B
:104C3000FB607B689B69012B28D0FB6803F4800232
:104C40007B68DB699A4221D1FB6803F03F027B68F5
:104C50001B6A9A421AD1FA6847F6C07313407A6801
:104C6000526A9201934211D1FB6803F440327B688F
:104C70009B6A5B08013B1B049A4207D1FB6803F067
:104C800070627B68DB6A1B069A4201D0012300E058
:104C9000002318461837BD4680BD00BF00380240CB
:104CA00080B584B000AF786039600023FB607B681A
:104CB000002B01D10123D0E06A4B1B6803F00F03E6
:104CC0003A689A4210D9674B1B6823F00F02654976
:104CD0003B6813430B60634B1B6803F00F033A6898
:104CE0009A4201D00123B8E07B681B6803F00203FD
:104CF000002B20D07B681B6803F00403002B05D039
:104D0000594B9B68584A43F4E05393607B681B6897
:104D100003F00803002B05D0534B9B68524A43F421
:104D200060439360504B9B6823F0F0027B689B6864
:104D30004D4913438B607B681B6803F00103002B14
:104D400040D07B685B68012B07D1474B1B6803F49D
:104D50000033002B15D101237FE07B685B68022BB9
:104D600007D1414B1B6803F00073002B09D10123CD
:104D700073E03D4B1B6803F00203002B01D10123BC
:104D80006BE0394B9B6823F003027B685B68364914
:104D900013438B60FDF76CF9F8600AE0FDF768F9E2
:104DA0000246FB68D31A41F28832934201D90323A9
:104DB00053E02D4B9B6803F00C027B685B689B0003
:104DC0009A42EBD1274B1B6803F00F033A689A42D3
:104DD00010D2244B1B6823F00F0222493B68134377
:104DE0000B60204B1B6803F00F033A689A4201D016
:104DF000012332E07B681B6803F00403002B08D01A
:104E0000194B9B6823F4E0527B68DB681649134317
:104E10008B607B681B6803F00803002B09D0124BE2
:104E20009B6823F460427B681B69DB000E491343D7
:104E30008B6000F021F802460B4B9B681B0903F0C6
:104E40000F030A49CB5C22FA03F3094A1360094BAA
:104E50001B681846FCF7CEFD002318461037BD46E8
:104E600080BD00BF003C024000380240F0D705087A
:104E700004000020080000202DE9B04F90B000AFE2
:104E800000237B630023FB6300233B630023BB639E
:104E9000594B9B6803F00C03082B0DD0082B00F234
:104EA000A180002B02D0042B03D09BE0534BBB63AB
:104EB0009BE0534BBB6398E04F4B5B6803F03F03B1
:104EC0007B634D4B5B6803F48003002B28D04A4B77
:104ED0005B689B0900223B627A623B6AC3F308006D
:104EE0000021474B03FB01F2002300FB03F31344B3
:104EF000434AA0FB0212FA620A46BA62FA6A1344F3
:104F0000FB627B6B0022BB61FA61D7E90623D7E91C
:104F10000A01FBF7D5F902460B461346FB6353E043
:104F2000354B5B689B0900223B617A613B69C3F3A7
:104F3000080A4FF0000B52465B464FF000004FF05E
:104F40000001590141EAD261500102460B46B2EB21
:104F50000A0863EB0B094FF000024FF000034FEA21
:104F6000891343EA98634FEA8812B2EB080463EBB3
:104F700009054FF000024FF00003EB0043EA5473C1
:104F8000E20014461D4614EB0A033B6045EB0B039D
:104F90007B604FF000024FF00003D7E9004529463F
:104FA0008B02214643EA915321468A021046194654
:104FB0007B6B0022BB60FA60D7E90223FBF780F924
:104FC00002460B461346FB630B4B5B681B0C03F05E
:104FD000030301335B003B63FA6B3B6BB2FBF3F300
:104FE000BB6302E0054BBB6300BFBB6B1846403799
:104FF000BD46BDE8B08F00BF003802400024F40079
:1050000040787D0180B400AF034B1B681846BD4655
:105010005DF8047B704700BF0400002080B500AF3E
:10502000FFF7F0FF0246054B9B689B0A03F007035E
:105030000349CB5C22FA03F3184680BD00380240D6
:1050400000D8050880B500AFFFF7DCFF0246054B2E
:105050009B685B0B03F007030349CB5C22FA03F365
:10506000184680BD0038024000D8050880B483B0DF
:1050700000AF786039607B680F221A60124B9B6822
:1050800003F003027B685A600F4B9B6803F0F00249
:105090007B689A600C4B9B6803F4E0527B68DA6093
:1050A000094B9B68DB0803F4E0527B681A61074BED
:1050B0001B6803F00F023B681A6000BF0C37BD4647
:1050C0005DF8047B704700BF00380240003C02409E
:1050D00080B588B000AF786000237B6100233B611E
:1050E0000023FB600023FB610023BB617B681B681E
:1050F00003F00103002B12D0694B9B68684A23F42C
:1051000000039360664B9A687B685B6B644913434A
:105110008B607B685B6B002B01D10123FB617B689B
:105120001B6803F40023002B17D05D4BD3F88C30A1
:1051300023F440127B68DB6B59491343C1F88C3070
:105140007B68DB6BB3F5801F01D10123FB617B68BA
:10515000DB6B002B01D10123BB617B681B6803F46F
:105160008013002B17D04E4BD3F88C3023F4400221
:105170007B681B6C4A491343C1F88C307B681B6CFD
:10518000B3F5800F01D10123FB617B681B6C002B01
:1051900001D10123BB617B681B6803F08073002B86
:1051A00001D00123FB617B681B6803F02003002B07
:1051B00000F08B803A4B1B6C394A43F080531364E8
:1051C000374B1B6C03F08053BB60BB68354B1B68CF
:1051D000344A43F480731360FCF74AFF786108E0B7
:1051E000FCF746FF02467B69D31A642B01D90323DF
:1051F00057E32C4B1B6803F48073002BF0D0284B33
:105200001B6F03F440733B613B69002B35D07B6817
:105210001B6B03F440733A699A422ED0204B1B6FEC
:1052200023F440733B611E4B1B6F1D4A43F48033D4
:1052300013671B4B1B6F1A4A23F480331367184AFA
:105240003B691367164B1B6F03F00103012B14D14D
:10525000FCF70EFF78610AE0FCF70AFF02467B6963
:10526000D31A41F28832934201D9032319E30C4B3C
:105270001B6F03F00203002BEED07B681B6B03F463
:105280004073B3F5407F11D1054B9B6823F4F812AE
:105290007B68196B044B0B40014913438B600BE097
:1052A0000038024000700040FFFCFF0FAA4B9B68D3
:1052B000A94A23F4F8139360A74B1A6F7B681B6B02
:1052C000C3F30B03A44913430B677B681B6803F00C
:1052D0001003002B10D0A04BD3F88C309E4A23F043
:1052E0008073C2F88C309C4BD3F88C207B689B6B0E
:1052F00099491343C1F88C307B681B6803F48043E1
:10530000002B0AD0944BD3F8903023F440327B68C2
:105310005B6E91491343C1F890307B681B6803F4BE
:105320000043002B0AD08C4BD3F8903023F440225A
:105330007B689B6E88491343C1F890307B681B687B
:1053400003F48033002B0AD0834BD3F8903023F43E
:1053500040127B68DB6E80491343C1F890307B6854
:105360001B6803F40033002B0AD07B4BD3F890303A
:1053700023F440027B681B6F77491343C1F89030D8
:105380007B681B6803F04003002B0AD0724BD3F8F4
:10539000903023F003027B685B6C6F491343C1F8C4
:1053A00090307B681B6803F08003002B0AD06A4BA7
:1053B000D3F8903023F00C027B689B6C6649134352
:1053C000C1F890307B681B6803F48073002B0AD00F
:1053D000614BD3F8903023F030027B68DB6C5E4980
:1053E0001343C1F890307B681B6803F40073002BF3
:1053F0000AD0594BD3F8903023F0C0027B681B6D64
:1054000055491343C1F890307B681B6803F48063EF
:10541000002B0AD0504BD3F8903023F440727B68B5
:105420005B6D4D491343C1F890307B681B6803F4F2
:105430000063002B0AD0484BD3F8903023F440622D
:105440007B689B6D44491343C1F890307B681B68AF
:1054500003F48053002B0AD03F4BD3F8903023F451
:1054600040527B68DB6D3C491343C1F890307B6848
:105470001B6803F40053002B0AD0374BD3F890304D
:1054800023F440427B681B6E33491343C1F89030CC
:105490007B681B6803F48003002B0AD02E4BD3F8E3
:1054A000903023F080627B689B6F2B491343C1F8D7
:1054B00090307B681B6803F40013002B11D0264B3F
:1054C000D3F8903023F000627B68DB6F22491343EE
:1054D000C1F890307B68DB6FB3F1006F01D101231D
:1054E000BB617B681B6803F00803002B01D001231C
:1054F000BB617B681B6803F48023002B0AD0164B2A
:10550000D3F8903023F040727B685B6F12491343ED
:10551000C1F890307B681B6803F40003002B0BD0AC
:105520000D4BD3F8903023F080527B68D3F8803055
:1055300009491343C1F89030FB69012B06D07B6801
:105540001B6803F00073002B00F0D980024B1B682E
:10555000014A23F0806301E0003802401360FCF749
:1055600087FD786108E0FCF783FD02467B69D31A6A
:10557000642B01D9032394E16C4B1B6803F0006397
:10558000002BF0D17B681B6803F00103002B21D0B6
:105590007B685B6B002B1DD1644BD3F884301B0CF4
:1055A00003F003033B61614BD3F884301B0E03F01F
:1055B0000F03FB607B685B689A013B691B041A431D
:1055C000FB681B061A437B689B681B0757491343FC
:1055D000C1F884307B681B6803F40023002B04D0DF
:1055E0007B68DB6BB3F5801F0AD07B681B6803F414
:1055F0008013002B2ED07B681B6CB3F5800F29D154
:105600004A4BD3F884301B0C03F003033B61474B38
:10561000D3F884301B0F03F00703FB607B685B68E3
:105620009A013B691B041A437B68DB681B061A431B
:10563000FB681B073D491343C1F884303B4BD3F84B
:105640008C3023F01F027B685B6A013B37491343B0
:10565000C1F88C307B681B6803F08073002B1DD071
:10566000324BD3F884301B0E03F00F033B612F4BFA
:10567000D3F884301B0F03F00703FB607B685B6883
:105680009A017B681B691B041A433B691B061A437A
:10569000FB681B0725491343C1F884307B681B68EE
:1056A00003F00073002B11D07B685B689A017B6864
:1056B0001B691B041A437B68DB681B061A437B6863
:1056C0009B681B0719491343C1F88430174B1B68AB
:1056D000164A43F080631360FCF7CAFC786108E067
:1056E000FCF7C6FC02467B69D31A642B01D903235D
:1056F000D7E00E4B1B6803F00063002BF0D0BB69B2
:10570000012B40F0CD80094B1B68084A23F08053E1
:105710001360FCF7ADFC78610AE0FCF7A9FC0246D7
:105720007B69D31A642B03D90323BAE00038024003
:105730005E4B1B6803F00053B3F1005FEDD07B6854
:105740001B6803F40023002B03D07B68DB6B002B6A
:1057500009D07B681B6803F48013002B2ED07B6874
:105760001B6C002B2AD1514BD3F888301B0C03F053
:1057700003033B614D4BD3F888301B0F03F0070345
:10578000FB607B685B699A013B691B041A437B6879
:105790009B691B061A43FB681B0744491343C1F866
:1057A0008830424BD3F88C3023F4F8527B689B6AE4
:1057B000013B1B023D491343C1F88C307B681B68D9
:1057C00003F40013002B22D07B68DB6FB3F1006F72
:1057D0001DD1364BD3F888301B0E03F00F033B610D
:1057E000324BD3F888301B0F03F00703FB607B6854
:1057F0005B699A017B681B6A1B041A433B691B06A1
:105800001A43FB681B0729491343C1F888307B689A
:105810001B6803F00803002B28D0244BD3F88830F2
:105820001B0E03F00F033B61204BD3F888301B0C99
:1058300003F00303FB607B685B699A01FB681B0450
:105840001A433B691B061A437B68DB691B07174930
:105850001343C1F88830154BD3F88C3023F4403211
:105860007B68DB6A11491343C1F88C300F4B1B680E
:105870000E4A43F080531360FCF7FAFB786108E0AE
:10588000FCF7F6FB02467B69D31A642B01D903238C
:1058900007E0064B1B6803F00053B3F1005FEFD144
:1058A000002318462037BD4680BD00BF00380240A7
:1058B00080B584B000AFF860B9607A60FB68002BF7
:1058C00001D1012338E0FB6893F84530DBB2002BAF
:1058D00006D1FB68002283F84420F868FCF780F8C2
:1058E000FB681A68FB6808331946104601F082FF0E
:1058F000FB681868FB689B681A46B96802F00AF8EA
:10590000FB685868FB689A68FB68DB6A796802F094
:1059100051F8FB681B68FA68926853F82210FB681C
:105920001B68FA68926841F0010143F82210FB6895
:10593000012283F84520002318461037BD4680BD5C
:1059400080B582B000AF78607B68002B01D1012365
:1059500049E07B6893F83D30DBB2002B06D17B68D1
:10596000002283F83C207868FBF7F0FD7B68022278
:1059700083F83D207B681A687B680433194610461B
:1059800000F0F6F97B68012283F848207B68012249
:1059900083F83E207B68012283F83F207B68012248
:1059A00083F840207B68012283F841207B68012234
:1059B00083F842207B68012283F843207B68012220
:1059C00083F844207B68012283F845207B6801220C
:1059D00083F846207B68012283F847207B680122F8
:1059E00083F83D20002318460837BD4680BD0000DF
:1059F00080B485B000AF78607B6893F83D30DBB24F
:105A0000012B01D0012354E07B68022283F83D2062
:105A10007B681B68DA687B681B6842F00102DA6009
:105A20007B681B68264A934222D07B681B68B3F1CF
:105A3000804F1DD07B681B68224A934218D07B6838
:105A40001B68214A934213D07B681B681F4A93420C
:105A50000ED07B681B681E4A934209D07B681B6886
:105A60001C4A934204D07B681B681B4A934215D1A1
:105A70007B681B689A68194B1340FB60FB68062B18
:105A800015D0FB68B3F5803F11D07B681B681A689E
:105A90007B681B6842F001021A6008E07B681B68A3
:105AA0001A687B681B6842F001021A6000E000BFC0
:105AB000002318461437BD465DF8047B704700BFCD
:105AC000000001400004004000080040000C0040BD
:105AD00000040140004001400018004007000100A0
