:020000040800F2
:1000000000000520151C0008B1190008B7190008E8
:10001000BD190008C3190008C91900080000000034
:10002000000000000000000000000000CF190008E0
:10003000DD19000800000000EB190008F91900089C
:10004000651C0008651C0008651C0008651C00088C
:10005000651C0008651C0008651C0008651C00087C
:10006000651C0008651C0008651C0008651C00086C
:10007000651C0008651C0008651C0008651C00085C
:10008000651C0008651C0008651C0008651C00084C
:10009000091A0008651C0008651C0008651C00089A
:1000A000651C0008651C0008651C0008651C00082C
:1000B000651C0008651C0008651C0008651C00081C
:1000C000651C0008651C0008651C0008651C00080C
:1000D000651C00081D1A0008651C0008311A00087C
:1000E000651C0008651C0008651C0008651C0008EC
:1000F000651C0008651C0008651C0008651C0008DC
:10010000651C0008651C0008651C0008651C0008CB
:10011000451A0008591A00086D1A0008811A0008CB
:10012000651C0008651C0008651C0008651C0008AB
:10013000651C0008651C0008651C0008651C00089B
:10014000651C0008651C0008651C0008651C00088B
:10015000651C0008651C0008651C0008951A00084D
:10016000651C0008651C0008651C0008651C00086B
:10017000651C0008651C0008651C000800000000E4
:10018000651C0008651C0008651C0008651C00084B
:10019000651C0008651C0008651C0008651C00083B
:1001A000651C0008651C0008651C0008651C00082B
:1001B000651C0008651C0008651C0008651C00081B
:0801C000651C0008651C000825
:1001D00010B5054C237833B9044B13B10448AFF381
:1001E00000800123237010BD70000020000000007B
:1001F0001875000808B5034B1BB103490348AFF35A
:10020000008008BD00000000740000201875000880
:1002100001F0FF01102A2BDB10F0070F08D010F8B7
:10022000013B013A8B422DD010F0070F42B3F6D1BB
:10023000F0B441EA012141EA014122F007047FF0D4
:1002400000070023F0E80256083C85EA010586EA2B
:10025000010685FA47F5A3FA87F586FA47F6A5FA67
:1002600087F68EB9EED1F0BC01F0FF0102F0070273
:1002700032B110F8013B013A83EA010313B1F8D11E
:100280000020704701387047002D06BF35460338FF
:10029000073815F0010F07D1013015F4807F02BF38
:1002A000013015F4C03F0130F0BC0138704700BF89
:1002B00053B94AB9002908BF00281CBF4FF0FF31CD
:1002C0004FF0FF3000F074B9ADF1080C6DE904CEC9
:1002D00000F006F8DDF804E0DDE9022304B0704721
:1002E0002DE9F047089D04468E46002B4DD18A42E9
:1002F000944669D9B2FA82F252B101FA02F3C2F11C
:10030000200120FA01F10CFA02FC41EA030E9440AC
:100310004FEA1C48210CBEFBF8F61FFA8CF708FBCD
:1003200016E341EA034306FB07F199420AD91CEBA5
:10033000030306F1FF3080F01F81994240F21C81D7
:10034000023E63445B1AA4B2B3FBF8F008FB10331F
:1003500044EA034400FB07F7A7420AD91CEB040454
:1003600000F1FF3380F00A81A74240F20781644424
:10037000023840EA0640E41B00261DB1D4400023A9
:10038000C5E900433146BDE8F0878B4209D9002D0D
:1003900000F0EF800026C5E9000130463146BDE897
:1003A000F087B3FA83F6002E4AD18B4202D3824201
:1003B00000F2F980841A61EB030301209E46002DB0
:1003C000E0D0C5E9004EDDE702B9FFDEB2FA82F205
:1003D000002A40F09280A1EB0C014FEA1C471FFA63
:1003E0008CFE0126200CB1FBF7F307FB131140EA4A
:1003F00001410EFB03F0884208D91CEB010103F117
:10040000FF3802D2884200F2CB804346091AA4B2D8
:10041000B1FBF7F007FB101144EA01440EFB00FEAC
:10042000A64508D91CEB040400F1FF3102D2A64511
:1004300000F2BB800846A4EB0E0440EA03409CE7B0
:10044000C6F12007B34022FA07FC4CEA030C20FA5D
:1004500007F401FA06F31C43F9404FEA1C4900FA7D
:1004600006F3B1FBF9F8200C1FFA8CFE09FB1811FA
:1004700040EA014108FB0EF0884202FA06F20BD96D
:100480001CEB010108F1FF3A80F08880884240F2BD
:100490008580A8F102086144091AA4B2B1FBF9F001
:1004A00009FB101144EA014100FB0EFE8E4508D9FC
:1004B0001CEB010100F1FF346CD28E456AD9023881
:1004C000614440EA0840A0FB0294A1EB0E01A14266
:1004D000C846A64656D353D05DB1B3EB080261EBD4
:1004E0000E0101FA07F722FA06F3F1401F43C5E9AE
:1004F000007100263146BDE8F087C2F12003D840E4
:100500000CFA02FC21FA03F3914001434FEA1C4725
:100510001FFA8CFEB3FBF7F007FB10360B0C43EA17
:10052000064300FB0EF69E4204FA02F408D91CEBC7
:10053000030300F1FF382FD29E422DD902386344C5
:100540009B1B89B2B3FBF7F607FB163341EA034165
:1005500006FB0EF38B4208D91CEB010106F1FF38B4
:1005600016D28B4214D9023E6144C91A46EA0046AB
:1005700038E72E46284605E70646E3E61846F8E63D
:100580004B45A9D2B9EB020864EB0C0E0138A3E786
:100590004646EAE7204694E74046D1E7D0467BE767
:1005A000023B614432E7304609E76444023842E7DF
:1005B000704700BF80B582B000AF0023FB711F48B9
:1005C00006F02CF81E4B00221A601E4B00221A6007
:1005D0001D4B00221A601D4B01221A7040F2094285
:1005E00000211B4805F08CFF40F20941184800F03B
:1005F00007F90346BB80BB88002B07D0BB88194690
:10060000134800F029F80346FB7101E00123FB7158
:10061000FB79002B06D00F4806F000F8012000F00F
:10062000ABF906E0002000F0A7F9084B1B78002B7F
:10063000D4D1FB7918460837BD4680BD3075000817
:1006400098040020A00400209C04002095040020B1
:100650008C0000205075000880B58AB000AF78602B
:100660000B467B80012387F827307B68002B00F046
:10067000A3807B88002B00F09F807B683B623B6AF5
:100680005B78002B04D13B6A1B79022B00F096802B
:10069000524B1B78042B00F28B8001A252F823F0FE
:1006A000B5060008C3060008EB060008210700088D
:1006B000890700084A4805F0B1FF002387F8273072
:1006C00085E07B68FB60FB685B78002B78D1FB687A
:1006D0001B79002B74D1434805F0A0FF3F4B022249
:1006E0001A70002387F827306AE07B683B613B691A
:1006F0005B78022B66D13B695B683B4A13603B69C0
:100700009B683A4A1360384B1B681946384805F015
:10071000FFFE324B03221A70002387F8273051E086
:100720007B68BB61BB699A78DB781B021343FB8251
:10073000BB695B78012B47D12E4B1B68002B0CBF8C
:1007400001230023DAB2FB8A1946786800F03AF9EF
:1007500003467B757B7D002B36D1264B1B68990A9F
:10076000214B1B689B0A1A46234805F0D1FE214BFA
:100770001A681D4B1B689A4202D3184B04221A7048
:10078000002387F827301FE07B68FB61FB695B78FB
:10079000002B1BD1FB691B79012B17D1174805F0E2
:1007A0003DFF0E4B00221A70002387F827300DE022
:1007B000012387F827300AE000BF08E000BF06E009
:1007C00000BF04E000BF02E000BF00E000BF97F8F8
:1007D000273018462837BD4680BD00BF950400204D
:1007E0006075000878750008980400209C040020BB
:1007F00094750008A0040020BC750008C8750008A6
:1008000080B584B000AF78600B467B800023BB814D
:10081000BB897A68D1184FF0FF330122544804F0A5
:1008200044F90346FB81B7F90E30002B7FD1BB8919
:100830005A1CBA811A467B6813441B78AA2B02D033
:100840000123FB817CE0BB895A1CBA811A467B6874
:1008500099184FF0FF330122454804F026F903466A
:10086000FB81B7F90E30002B63D1BB897A68D118B0
:100870004FF0FF3302223E4804F017F90346FB8194
:10088000B7F90E30002B56D1BB897A6813441B8808
:100890003B81BB890233BB8100237B8114E0BB8990
:1008A0005A1CBA811A467B6899184FF0FF3301220F
:1008B0002F4804F0FAF80346FB81B7F90E30002BFD
:1008C00007D17B8901337B817A893B899A42E6D3C0
:1008D00000E000BFBB897A68D1184FF0FF330422D3
:1008E000234804F0E2F80346FB81B7F90E30002BF1
:1008F00023D1BB890433BB81BB897A68D1184FF0FF
:10090000FF3301221A4804F0D0F80346FB81B7F9FF
:100910000E30002B13D1BB895A1CBA811A467B6852
:1009200013441B78BB2B0BD00123FB8108E000BFD5
:1009300006E000BF04E000BF02E000BF00E000BF2F
:10094000B7F90E30002B01D00023BB817A88BB8918
:100950009A4207D27B88BA891946064805F0D8FD25
:100960000023BB81BB8918461037BD4680BD00BF40
:10097000B0060020E475000880B586B000AF0346DD
:10098000FB71AA233B7303237B730123FB81FB7958
:100990003B7400237B740023BB740023FB7400238F
:1009A0003B75BB237B7507F10C014FF0FF330A2227
:1009B000034803F0F7FF00BF1837BD4680BD00BFF6
:1009C000B0060020B0B58AB000AF78600B467B80DF
:1009D00013467B7001F0EAFE034687F8273097F84C
:1009E0002730002B57D17B78002B19D02F4805F0EA
:1009F00015FE00233B6105237B610223BB610223BB
:100A0000FB6107F10C0207F110031146184602F0D2
:100A10002FF8034687F8273097F82730002B3CD172
:100A200000233B6226E0224B1B68224919443B6AA3
:100A300004331A467B6813441B78DBB200221C4641
:100A4000154622462B46002001F054FE034687F847
:100A5000273097F82730002B05D1154B1B68013341
:100A6000134A136003E0144805F0D8FD06E03B6A22
:100A700001333B627B883A6A9A42D4DB97F827308D
:100A8000002B0CD101F0B4FE034687F8273097F80D
:100A90002730002B04E000BF02E000BF00E000BFF1
:100AA00097F8273018462837BD46B0BD287600088D
:100AB000A0040020000004084876000880B582B039
:100AC00000AF7860391D4FF0FF330122034803F077
:100AD00069FF7B6818460837BD4680BD28060020A0
:100AE00080B586B000AF1F4B1B683B613B69FB6064
:100AF0001D4805F093FD72B600BF0023FB7509E0A9
:100B00001A4AFB7D20334FF0FF3142F82310FB7D62
:100B10000133FB75FB7D072BF2D90023BB7509E080
:100B2000124ABB7D60334FF0FF3142F82310BB7D8A
:100B30000133BB75BB7D072BF2D962B600BF002322
:100B40007B607B6883F3148800BF094B1B68BB6024
:100B5000BB6883F3088800BFFB68984700BF18375D
:100B6000BD4680BD040004085C76000800E100E09A
:100B70000000040880B582B000AF78607B681B6815
:100B80000B4A93420FD1252001F00FFD01220949A4
:100B9000094804F04FF8252001F0F9FC012205492D
:100BA000054804F0A5F800BF0837BD4680BD00BF6A
:100BB000001001400C0800202806002080B582B0FB
:100BC00000AF01F050F800F07FF800F0ADFA00F04F
:100BD000E9F800F047FA00F051F900F0B1F900F03F
:100BE000DFF900F00DFA00F079F900F011F94FF497
:100BF0007A7001F065F8002301221946294805F0B2
:100C000087FC01F051F8024641F2883313447B60BF
:100C100001222549254804F06BF8254805F0FEFC23
:100C200001F042F83860204B1B78332B07D03A682C
:100C30007B689A4203D8642001F042F8F0E71A4B2F
:100C40001B78332B23D1184B00221A70194805F05A
:100C5000E5FCFFF7AFFC0346002B0FD0164805F06C
:100C6000DDFC164805F0DAFC0F4B1B78332B01D165
:100C700001F0A9FC642001F023F8F5E7104805F025
:100C8000CDFC4FF47A7001F01BF801F09CFC0D488C
:100C900005F0C4FC4FF47A7001F012F8FFF720FF62
:100CA000FEE700BF787600080C0800202806002028
:100CB00094760008BC760008DC760008FC76000814
:100CC0002C7700085877000880B594B000AF07F182
:100CD000200330220021184605F012FC07F10C0316
:100CE00000221A605A609A60DA601A612B4B1B6C02
:100CF0002A4A43F080531364284B1B6C03F0805343
:100D0000BB60BB68264B1B68254A43F44043136015
:100D1000234B1B6803F440437B607B6801233B62E9
:100D20004FF480337B620223BB634FF48003FB6389
:100D300019233B644FF4D8737B640223BB64022302
:100D4000FB6407F12003184602F086F90346002BE6
:100D500001D000F0E9FA02F02FF90346002B01D090
:100D600000F0E2FA0F23FB6002233B6100237B616A
:100D70004FF4A053BB614FF48053FB6107F10C03A8
:100D80000721184602F00CFC0346002B01D000F0AE
:100D9000CBFA00BF5037BD4680BD00BF00380240CF
:100DA0000070004080B500AF174B184A1A60164B10
:100DB0000C225A60144B00229A60134B0022DA6016
:100DC000114B4FF460221A610F4B4FF480125A619D
:100DD0000D4B00221A760C4B00225A760A4B002249
:100DE0009A76094B0022DA76074B00221A77064BD7
:100DF00000225A77044800F087FF0346002B01D0F9
:100E000000F092FA00BF80BDA404002000640040FE
:100E100080B584B000AF3B1D00221A605A609A6012
:100E2000144B154A1A60134B6B225A60114B002267
:100E30009A60104B6322DA600E4B80229A610D4853
:100E400003F0FEF90346002B01D000F06DFA0023F9
:100E50007B600023FB603B1D1946064803F0A8FC9D
:100E60000346002B01D000F05FFA00BF1037BD46EB
:100E700080BD00BFCC0400200014004080B500AF4E
:100E8000144B154A1A60134B4FF4E1325A60114B60
:100E900000229A600F4B0022DA600E4B00221A618A
:100EA0000C4B0C225A610B4B00229A61094B002219
:100EB000DA61084B00221A62064B00225A6205488A
:100EC00003F022FD0346002B01D000F02DFA00BFF5
:100ED00080BD00BF18050020004C004080B500AF69
:100EE000154B164A1A60144B4FF4E1325A60124BFC
:100EF0004FF480529A60104B0022DA600E4B4FF490
:100F000080621A610C4B0C225A610B4B00229A61D1
:100F1000094B0022DA61084B00221A62064B0022BC
:100F20005A62054803F0F0FC0346002B01D000F0A4
:100F3000FBF900BF80BD00BFA005002000500040AD
:100F400080B500AF144B154A1A60134B4FF4E132D1
:100F50005A60114B00229A600F4B0022DA600E4B50
:100F600000221A610C4B0C225A610B4B00229A6131
:100F7000094B0022DA61084B00221A62064B00225C
:100F80005A62054803F0C0FC0346002B01D000F074
:100F9000CBF900BF80BD00BF280600200010014033
:100FA00080B500AF144B154A1A60134B4FF4E13271
:100FB0005A60114B00229A600F4B0022DA600E4BF0
:100FC00000221A610C4B0C225A610B4B00229A61D1
:100FD000094B0022DA61084B00221A62064B0022FC
:100FE0005A62054803F090FC0346002B01D000F044
:100FF0009BF900BF80BD00BFB00600200048004044
:1010000080B500AF154B164A1A60144B4FF4E1320D
:101010005A60124B4FF480529A60104B0022DA60F3
:101020000E4B4FF480621A610C4B0C225A610B4B31
:1010300000229A61094B0022DA61084B00221A62F1
:10104000064B00225A62054803F05EFC0346002B63
:1010500001D000F069F900BF80BD00BF3807002053
:101060000014014080B588B000AF3B1D00221A601B
:101070005A609A60DA601A615A619A61284B4FF09F
:1010800020421A60264B274A5A60254B00229A605C
:10109000234B0022DA60224B04221A61204B1022DB
:1010A0005A611F4B00229A611D4B0022DA611C4BD2
:1010B00000221A621A4B00225A62194B00229A62CD
:1010C000174B0022DA62164B00221A63144B0022DF
:1010D0005A63134B00229A63114B4FF40012DA63E8
:1010E0000F4B00221A6405237B600F23BB6004238F
:1010F000FB6004233B6110237B611123BB61002350
:10110000FB613B1D00221946054803F051F80346D8
:10111000002B01D000F008F900BF2037BD4680BD8C
:10112000C0070020040100A080B58EB000AF07F119
:10113000240300221A605A609A60DA601A616B4BCD
:101140001B6B6A4A43F010031363684B1B6B03F07D
:1011500010033B623B6A654B1B6B644A43F004031C
:101160001363624B1B6B03F00403FB61FB695F4B72
:101170001B6B5E4A43F0200313635C4B1B6B03F055
:101180002003BB61BB69594B1B6B584A43F080037A
:101190001363564B1B6B03F080037B617B69534BDE
:1011A0001B6B524A43F002031363504B1B6B03F05B
:1011B00002033B613B694D4B1B6B4C4A43F04003C0
:1011C00013634A4B1B6B03F04003FB60FB68474B08
:1011D0001B6B464A43F008031363444B1B6B03F03D
:1011E0000803BB60BB68414B1B6B404A43F00103E3
:1011F00013633E4B1B6B03F001037B607B68002293
:101200004FF6F0713A4801F0BDFE002240F2E7319E
:10121000384801F0B7FE00224FF44071364801F023
:10122000B1FE7F237B620023BB620023FB6207F1D8
:1012300024031946314801F0F9FC4FF440437B6226
:101240000023BB620023FB6207F1240319462A48EE
:1012500001F0ECFC4FF6F0737B620123BB620023CC
:10126000FB6200233B6307F124031946204801F089
:10127000DDFC40F2C7337B620123BB620023FB62CB
:1012800000233B6307F1240319461A4801F0CEFC02
:101290004FF2FF737B620023BB620023FB6207F106
:1012A00024031946164801F0C1FC4FF440737B62D9
:1012B0000123BB620023FB6200233B6307F124038D
:1012C00019460D4801F0B2FC20237B620123BB626A
:1012D0000023FB6202233B6307F124031946054800
:1012E00001F0A4FC00BF3837BD4680BD0038024085
:1012F00000140240000402400008024000100240B6
:101300000018024080B582B000AF78607B681B682F
:10131000044A934201D100F0B3FC00BF0837BD4638
:1013200080BD00BF0010004080B400AF72B600BFA7
:10133000FEE7000080B483B000AF0F4B1B6C0E4A79
:1013400043F0805313640C4B1B6C03F080537B60A1
:101350007B68094B5B6C084A43F480435364064B3B
:101360005B6C03F480433B603B6800BF0C37BD46B9
:101370005DF8047B704700BF0038024080B58AB03A
:1013800000AF786007F1140300221A605A609A6077
:10139000DA601A617B681B681B4A934230D11B4B91
:1013A0001B6C1A4A43F000731364184B1B6C03F058
:1013B00000733B613B69154B1B6B144A43F00103FF
:1013C0001363124B1B6B03F00103FB60FB684FF4CC
:1013D000C0537B610223BB610023FB6103233B629B
:1013E00009237B6207F114031946094801F01EFC2A
:1013F00000220821142001F0AEF8142001F0C7F8F3
:1014000000BF2837BD4680BD006400400038024060
:101410000000024080B584B000AF78607B681B6834
:101420000D4A934213D10D4B1B6C0C4A43F0200321
:1014300013640A4B1B6C03F02003FB60FB68002263
:101440000721372001F087F8372001F0A0F800BF0E
:101450001037BD4680BD00BF001400400038024078
:1014600080B5B4B000AF786007F1BC0300221A6009
:101470005A609A60DA601A6107F138038422002109
:10148000184605F03DF87B681B68A64A934246D192
:101490004FF40073BB630023C7F8883007F13803AB
:1014A000184602F095FA0346002B01D0FFF73CFFE7
:1014B0009D4B1B6C9C4A43F4002313649A4B1B6C9A
:1014C00003F400237B637B6B974B1B6B964A43F0C3
:1014D00004031363944B1B6B03F004033B633B6BEC
:1014E0004FF44063C7F8BC300223C7F8C030002374
:1014F000C7F8C4300323C7F8C8300823C7F8CC3076
:1015000007F1BC031946894801F090FB002208212D
:10151000342001F020F8342001F039F85EE17B68D6
:101520001B68834A934267D14FF48063BB630023F7
:10153000C7F88C3007F13803184602F049FA034621
:10154000002B01D0FFF7F0FE774B1B6C764A43F47B
:1015500080131364744B1B6C03F48013FB62FB6AEF
:10156000714B1B6B704A43F0040313636E4B1B6B90
:1015700003F00403BB62BB6A6B4B1B6B6A4A43F00C
:1015800008031363684B1B6B03F008037B627B6AE1
:101590004FF48053C7F8BC300223C7F8C030002393
:1015A000C7F8C4300323C7F8C8300823C7F8CC30C5
:1015B00007F1BC0319465D4801F038FB0423C7F866
:1015C000BC300223C7F8C0300023C7F8C43003235F
:1015D000C7F8C8300823C7F8CC3007F1BC03194658
:1015E000544801F023FB00220021352000F0B3FF16
:1015F000352000F0CCFFF1E07B681B684E4A934237
:1016000044D14023BB630023FB6707F1380318462E
:1016100002F0DEF90346002B01D0FFF785FE424BB6
:101620005B6C414A43F0100353643F4B5B6C03F027
:1016300010033B623B6A3C4B1B6B3B4A43F001038C
:101640001363394B1B6B03F00103FB61FB694FF420
:10165000C063C7F8BC300223C7F8C0300023C7F806
:10166000C4300323C7F8C8300723C7F8CC3007F1CC
:10167000BC031946314801F0D9FA00220E21252079
:1016800000F069FF252000F082FFA7E07B681B685F
:101690002B4A934258D14FF48073BB630023C7F8A1
:1016A000843007F13803184602F092F90346002B04
:1016B00001D0FFF739FE1C4B1B6C1B4A43F48023FF
:1016C0001364194B1B6C03F48023BB61BB69164B7D
:1016D0001B6B154A43F002031363134B1B6B03F0A0
:1016E00002037B617B694FF44063C7F8BC3002237F
:1016F000C7F8C0300023C7F8C4300323C7F8C83088
:101700000723C7F8CC3007F1BC0319460D4801F098
:101710008DFA00220821272000F01DFF272000F06D
:1017200036FF5BE0004C00400038024000080240F9
:1017300000500040000C0240001001400000024038
:1017400000480040000402407B681B68254A934221
:1017500044D14FF40063BB630023C7F8903007F116
:101760003803184602F034F90346002B01D0FFF786
:10177000DBFD1D4B5B6C1C4A43F0200353641A4B8A
:101780005B6C03F020033B613B69174B1B6B164AF4
:1017900043F004031363144B1B6B03F00403FB605F
:1017A000FB68C023C7F8BC300223C7F8C030002351
:1017B000C7F8C4300323C7F8C8300823C7F8CC30B3
:1017C00007F1BC031946094801F030FA002208214C
:1017D000472000F0C0FE472000F0D9FE00BFD03700
:1017E000BD4680BD001401400038024000080240A0
:1017F00080B586B000AF3B1D00221A605A609A6027
:10180000DA601A61234B1B68002B3ED1214B012269
:101810001A60214B9B6B204A43F0010393631E4BDC
:101820009B6B03F001033B603B6807237B60022353
:10183000BB600023FB6003233B610C237B613B1DEA
:101840001946164801F0F2F94FF680737B600223C7
:10185000BB600023FB6003233B610C237B613B1DCA
:1018600019460F4801F0E2F94CF2B3737B60022392
:10187000BB600023FB6003233B610C237B613B1DAA
:101880001946084801F0D2F900E000BF1837BD46FC
:1018900080BD00BF10080020003802400014024044
:1018A00000100240000C024080B582B000AF7860AA
:1018B000FFF79EFF00BF0837BD4680BD80B58EB0E4
:1018C00000AF78600023FB620023BB62334B1B6CCC
:1018D000324A43F010031364304B1B6C03F01003C7
:1018E000FB60FB6807F1100207F11403114618466C
:1018F00002F03CF83B6AFB62FB6A002B03D102F06A
:101900000DF8786304E002F009F803465B007B639E
:101910007B6B234AA2FB03239B0C013BBB62214B45
:10192000214A1A601F4B40F2E732DA601D4ABB6A57
:1019300053601C4B00221A611A4B00229A60194B0B
:1019400000229A61174802F07BFC034687F8333087
:1019500097F83330002B1BD1124802F0C9FC034624
:1019600087F8333097F83330002B11D1362000F050
:101970000EFE7B680F2B08D800227968362000F015
:10198000EAFD0A4A7B68136002E0012387F83330DE
:1019900097F8333018463837BD4680BD00380240CE
:1019A00083DE1B43140800200010004004000020C8
:1019B00080B400AFFEE780B400AFFEE780B400AFB4
:1019C000FEE780B400AFFEE780B400AFFEE780B46E
:1019D00000AF00BFBD465DF8047B704780B400AF28
:1019E00000BFBD465DF8047B704780B400AF00BF08
:1019F000BD465DF8047B704780B400AF00BFBD46B4
:101A00005DF8047B7047000080B500AF024800F02D
:101A100076FA00BF80BD00BFA404002080B500AFEF
:101A2000024803F0A9F900BF80BD00BF28060020CE
:101A300080B500AF024803F09FF900BF80BD00BF32
:101A4000B006002080B500AF024803F095F900BF52
:101A500080BD00BF1805002080B500AF024803F02C
:101A60008BF900BF80BD00BFA005002080B500AF8E
:101A7000024802F0B5FC00BF80BD00BF1408002082
:101A800080B500AF024802F0ABFC00BF80BD00BFD4
:101A9000CC04002080B500AF024803F06DF900BF10
:101AA00080BD00BF3807002080B586B000AFF86069
:101AB000B9607A6000237B610AE0AFF300800146E1
:101AC000BB685A1CBA60CAB21A707B6901337B6169
:101AD0007A697B689A42F0DB7B6818461837BD4606
:101AE00080BD80B586B000AFF860B9607A60002331
:101AF0007B6109E0BB685A1CBA601B781846FEF788
:101B0000DDFF7B6901337B617A697B689A42F1DB97
:101B10007B6818461837BD4680BD80B483B000AFDF
:101B200078604FF0FF3318460C37BD465DF8047BF4
:101B3000704780B483B000AF786039603B684FF481
:101B400000525A60002318460C37BD465DF8047BEE
:101B5000704780B483B000AF7860012318460C371B
:101B6000BD465DF8047B704780B485B000AFF86077
:101B7000B9607A60002318461437BD465DF8047BCF
:101B80007047000080B586B000AF7860144A154BEE
:101B9000D31A7B617B693B61134B1B68002B02D11D
:101BA000114B124A1A60104B1A687B6813443A6949
:101BB0009A4207D204F07AFC03460C221A604FF0D6
:101BC000FF3309E0084B1B68FB60074B1A687B6812
:101BD0001344054A1360FB6818461837BD4680BD9C
:101BE0000000052000400000600800209808002048
:101BF00080B400AF064BD3F88830054A43F4700335
:101C0000C2F8883000BFBD465DF8047B704700BF56
:101C100000ED00E0DFF834D00D480E490E4A0023F5
:101C200002E0D458C4500433C4188C42F9D30B4A90
:101C30000B4C002301E013600432A242FBD3FFF7F8
:101C4000D7FF04F039FCFEF7B9FF7047000005200C
:101C500000000020700000203C7800087000002088
:101C600094080020FEE780B500AF032000F068FC78
:101C70000F20FFF723FEFFF75DFB0023184680BD12
:101C800080B400AF064B1B781A46064B1B68134402
:101C9000044A136000BFBD465DF8047B704700BF77
:101CA000080000206408002080B400AF034B1B68CC
:101CB0001846BD465DF8047B704700BF64080020ED
:101CC00080B584B000AF7860FFF7EEFFB8607B6846
:101CD000FB60FB68B3F1FF3F05D00A4B1B781A4647
:101CE000FB681344FB6000BFFFF7DEFF0246BB68E2
:101CF000D31AFA689A42F7D800BF00BF1037BD4622
:101D000080BD00BF0800002080B584B000AF7860BF
:101D10007B68002B01D10123EDE07B6893F8203034
:101D2000DBB2002B02D17868FFF728FB7B681B68C9
:101D30001A687B681B6842F001021A60FFF7B4FF63
:101D4000F86012E0FFF7B0FF0246FB68D31A0A2BD7
:101D50000BD97B685B6A43F400327B685A627B680C
:101D6000052283F820200123C5E07B681B685B689F
:101D700003F00103002BE5D07B681B681A687B68C1
:101D80001B6822F002021A60FFF78EFFF86012E073
:101D9000FFF78AFF0246FB68D31A0A2B0BD97B6830
:101DA0005B6A43F400327B685A627B68052283F8E1
:101DB000202001239FE07B681B685B6803F002031F
:101DC000002BE5D17B681B7E012B08D17B681B684B
:101DD0001A687B681B6842F080021A6007E07B6823
:101DE0001B681A687B681B6822F080021A607B6897
:101DF0005B7E012B08D17B681B681A687B681B68B7
:101E000042F040021A6007E07B681B681A687B6832
:101E10001B6822F040021A607B689B7E012B08D170
:101E20007B681B681A687B681B6842F020021A6096
:101E300007E07B681B681A687B681B6822F0200239
:101E40001A607B68DB7E012B08D17B681B681A68EF
:101E50007B681B6822F010021A6007E07B681B6831
:101E60001A687B681B6842F010021A607B681B7F4F
:101E7000012B08D17B681B681A687B681B6842F0DD
:101E800008021A6007E07B681B681A687B681B6899
:101E900022F008021A607B685B7F012B08D17B6807
:101EA0001B681A687B681B6842F004021A6007E02E
:101EB0007B681B681A687B681B6822F004021A6042
:101EC0007B689A687B68DB681A437B681B691A43E6
:101ED0007B685B6942EA03017B685B685A1E7B682A
:101EE0001B680A43DA617B6800225A627B68012220
:101EF00083F82020002318461037BD4680BD80B5EA
:101F00008AB000AF786000237B627B681B685B69E6
:101F10003B627B681B685B68FB617B681B689B6836
:101F2000BB617B681B68DB687B617B681B681B6926
:101F30003B617B681B689B69FB603B6A03F00103A4
:101F4000002B7CD0BB6903F00103002B23D07B68FE
:101F50001B6801229A60BB6903F00203002B03D0C7
:101F6000786800F083F916E0BB6903F00403002BE6
:101F700004D07B6A43F400637B620CE0BB6903F02E
:101F80000803002B04D07B6A43F480537B6202E099
:101F9000786800F089F9BB6903F48073002B24D0C2
:101FA0007B681B684FF480729A60BB6903F400730E
:101FB000002B03D0786800F063F916E0BB6903F4E6
:101FC0008063002B04D07B6A43F400537B620CE0F7
:101FD000BB6903F40063002B04D07B6A43F48043A5
:101FE0007B6202E0786800F069F9BB6903F4803332
:101FF000002B24D07B681B684FF480329A60BB6949
:1020000003F40033002B03D0786800F043F916E0A6
:10201000BB6903F48023002B04D07B6A43F40043A4
:102020007B620CE0BB6903F40023002B04D07B6AC5
:1020300043F480337B6202E0786800F049F93B6A40
:1020400003F00803002B0CD07B6903F01003002B76
:1020500007D07B6A43F400737B627B681B681022A5
:10206000DA603B6A03F00403002B0BD07B6903F0BA
:102070000803002B06D07B681B680822DA607868AA
:1020800000F03AF93B6A03F00203002B09D07B68A9
:102090001B68DB6803F00303002B02D0786800F0B4
:1020A00021F93B6A03F04003002B0CD03B6903F09D
:1020B0001003002B07D07B6A43F480637B627B684C
:1020C0001B6810221A613B6A03F02003002B0BD01F
:1020D0003B6903F00803002B06D07B681B680822CD
:1020E0001A61786800F01CF93B6A03F01003002BBA
:1020F00009D07B681B681B6903F00303002B02D027
:10210000786800F003F93B6A03F40033002B0BD02E
:10211000FB6903F01003002B06D07B681B681022BC
:102120005A60786800F006F93B6A03F48033002BAC
:102130000BD0FB6903F00803002B06D07B681B68FB
:1021400008225A60786800F0FFF83B6A03F4004305
:10215000002B7BD0FB6903F00403002B72D03B6A99
:1021600003F48073002B08D0FB6803F00103002BFD
:1021700003D07B6A43F001037B623B6A03F4007384
:10218000002B08D0FB6803F00203002B03D07B6A0E
:1021900043F002037B623B6A03F48063002B08D0A8
:1021A000FB6803F00403002B03D07B6A43F00403B5
:1021B0007B623B6A03F40063002B43D0FB6803F0AF
:1021C0007003002B3ED0FB6803F07003602B2BD014
:1021D000602B2ED8502B22D0502B2AD8402B19D030
:1021E000402B26D8302B10D0302B22D8102B02D0E9
:1021F000202B05D01DE07B6A43F008037B6219E0C9
:102200007B6A43F010037B6214E07B6A43F0200397
:102210007B620FE07B6A43F040037B620AE07B6AEB
:1022200043F080037B6205E07B6A43F480737B624A
:1022300000E000BF7B681B689A697B681B6822F01E
:1022400070029A617B681B6804225A607B6A002BCB
:1022500008D07B685A6A7B6A1A437B685A6278683E
:1022600000F07CF800BF2837BD4680BD80B483B045
:1022700000AF786000BF0C37BD465DF8047B704747
:1022800080B483B000AF786000BF0C37BD465DF806
:10229000047B704780B483B000AF786000BF0C3718
:1022A000BD465DF8047B704780B483B000AF7860B2
:1022B00000BF0C37BD465DF8047B704780B483B027
:1022C00000AF786000BF0C37BD465DF8047B7047F7
:1022D00080B483B000AF786000BF0C37BD465DF8B6
:1022E000047B704780B483B000AF786000BF0C37C8
:1022F000BD465DF8047B704780B483B000AF786062
:1023000000BF0C37BD465DF8047B704780B483B0D6
:1023100000AF786000BF0C37BD465DF8047B7047A6
:1023200080B483B000AF786000BF0C37BD465DF865
:10233000047B704780B483B000AF786000BF0C3777
:10234000BD465DF8047B704780B483B000AF786011
:1023500000BF0C37BD465DF8047B704780B483B086
:1023600000AF786000BF0C37BD465DF8047B704756
:1023700080B485B000AF78607B6803F00703FB6032
:102380000B4BDB68BB60BA684FF6FF031340BB60C2
:10239000FB681A02BB681A43064B1343BB60044A2E
:1023A000BB68D36000BF1437BD465DF8047B70473F
:1023B00000ED00E00000FA0580B400AF044BDB68DC
:1023C0001B0A03F007031846BD465DF8047B7047FF
:1023D00000ED00E080B483B000AF0346FB7197F9D5
:1023E0000730002B0BDBFB7903F01F02074997F93D
:1023F00007305B09012000FA02F241F8232000BFF8
:102400000C37BD465DF8047B704700BF00E100E07B
:1024100080B483B000AF0346FB7197F90730002BFF
:1024200012DBFB7903F01F020A4997F907305B09B9
:10243000012000FA02F2203341F82320BFF34F8F2E
:1024400000BFBFF36F8F00BF00BF0C37BD465DF804
:10245000047B704700E100E080B483B000AF034626
:102460003960FB7197F90730002B0ADB3B68DAB261
:102470000C4997F907301201D2B20B4483F80023BC
:102480000AE03B68DAB20849FB7903F00F03043B2A
:102490001201D2B20B441A7600BF0C37BD465DF86C
:1024A000047B704700E100E000ED00E080B489B0FB
:1024B00000AFF860B9607A60FB6803F00703FB6166
:1024C000FB69C3F10703042B28BF0423BB61FB692D
:1024D0000433062B02D9FB69033B00E000237B6138
:1024E0004FF0FF32BB6902FA03F3DA43BB681A40CC
:1024F0007B699A404FF0FF317B6901FA03F3D943BE
:102500007B680B40134318462437BD465DF8047BB7
:102510007047000080B400AFBFF34F8F00BF064B81
:10252000DB6803F4E0620449044B1343CB60BFF360
:102530004F8F00BF00BFFDE700ED00E00400FA058B
:1025400080B582B000AF78607868FFF711FF00BFF8
:102550000837BD4680BD80B586B000AF0346B96080
:102560007A60FB7300237B61FFF726FF78617A684E
:10257000B9687869FFF79AFF024697F90F3011465C
:102580001846FFF769FF00BF1837BD4680BD80B50C
:1025900082B000AF0346FB7197F907301846FFF78A
:1025A00019FF00BF0837BD4680BD80B582B000AFBF
:1025B0000346FB7197F907301846FFF729FF00BF64
:1025C0000837BD4680BD80B500AFFFF7A3FF80B5DB
:1025D00084B000AF78607B689B6DFB60FFF764FBA5
:1025E000B8607B6893F83530DBB2022B08D07B688B
:1025F00080225A657B68002283F83420012352E050
:102600007B681B681A687B681B6822F016021A60D8
:102610007B681B685A697B681B6822F080025A61DC
:102620007B681B6C002B03D17B689B6C002B07D055
:102630007B681B681A687B681B6822F008021A60B6
:102640007B681B681A687B681B6822F001021A60AD
:1026500013E0FFF729FB0246BB68D31A052B0CD900
:102660007B6820225A657B68032283F835207B68CB
:10267000002283F83420032315E07B681B681B6865
:1026800003F00103002BE4D17B68DB6D3F229A400D
:10269000FB689A607B68012283F835207B68002202
:1026A00083F83420002318461037BD4680BD80B41F
:1026B00083B000AF78607B6893F83530DBB2022BD3
:1026C00004D07B6880225A6501230CE07B680522D8
:1026D00083F835207B681B681A687B681B6822F0CA
:1026E00001021A60002318460C37BD465DF8047BD2
:1026F0007047000080B586B000AFF860B960C7E9E8
:1027000000230123FB75274B1B7D012B01D10223E5
:1027100043E0244B01221A754CF2503000F078F857
:102720000346FB75FB7D002B33D1FB68032B23D8BD
:1027300001A252F823F000BF4927000855270008DE
:10274000612700086D2700083B781946B86800F03B
:1027500021F912E03B881946B86800F0F5F80CE062
:102760003B681946B86800F0C9F806E0D7E90023CD
:10277000B86800F08DF800E000BF4CF2503000F077
:1027800047F80346FB75084B1B69074A23F0010312
:102790001361044B00221A75FB7D18461837BD469D
:1027A00080BD00BF68080020003C024080B483B0B8
:1027B00000AF0023FB710B4B1B69002B0BDA094B9D
:1027C000094A5A60074B094A5A60064B1B69002B9D
:1027D00001DA0123FB71FB7918460C37BD465DF821
:1027E000047B7047003C024023016745AB89EFCD75
:1027F00080B400AF054B1B69044A43F000431361EA
:1028000000231846BD465DF8047B7047003C02403B
:1028100080B584B000AF78600023FB601A4B0022C3
:102820009A61FFF741FAF86010E07B68B3F1FF3F6F
:102830000CD07B68002B07D0FFF736FA0246FB6806
:10284000D31A7A689A4201D2032319E00F4BDB684E
:1028500003F48033002BE8D10C4BDB6803F0F20368
:10286000002B03D000F0BAF8012309E0074BDB6826
:1028700003F00103002B02D0044B0122DA60002395
:1028800018461037BD4680BD68080020003C024055
:1028900080B485B000AFF860C7E90023164B1B6910
:1028A000154A23F440731361134B1B69124A43F416
:1028B00040731361104B1B690F4A43F0010313610E
:1028C000FB683A681A60BFF36F8F00BFD7E9000159
:1028D0004FF000024FF000030A000023F9680431B2
:1028E00013460B60BFF34F8F00BF00BF1437BD46C8
:1028F0005DF8047B704700BF003C024080B483B0A9
:1029000000AF786039600F4B1B690E4A23F44073A7
:1029100013610C4B1B690B4A43F400731361094BA1
:102920001B69084A43F0010313617B683A681A6027
:10293000BFF34F8F00BF00BF0C37BD465DF8047B6F
:10294000704700BF003C024080B483B000AF7860A5
:102950000B467B800E4B1B690D4A23F440731361B9
:102960000B4B1B690A4A43F480731361084B1B69C4
:10297000074A43F0010313617B687A881A80BFF32A
:102980004F8F00BF00BF0C37BD465DF8047B70471A
:10299000003C024080B483B000AF78600B46FB700F
:1029A0000D4B1B690C4A23F4407313610A4B0A4A0E
:1029B0001B691361084B1B69074A43F0010313614C
:1029C0007B68FA781A70BFF34F8F00BF00BF0C37D7
:1029D000BD465DF8047B7047003C024080B400AF08
:1029E000214BDB6803F00203002B05D01F4B9B69D2
:1029F00043F020031D4A93611B4BDB6803F0100377
:102A0000002B05D0194B9B6943F01003174A9361C3
:102A1000154BDB6803F02003002B05D0134B9B699B
:102A200043F00803114A93610F4BDB6803F0400346
:102A3000002B05D00D4B9B6943F004030B4A9361B7
:102A4000094BDB6803F08003002B05D0074B9B6923
:102A500043F00203054A9361034BF222DA6000BFA0
:102A6000BD465DF8047B7047003C024068080020CA
:102A700080B584B000AF786039600123FB73002318
:102A8000BB602F4B1B7D012B01D1022353E02C4B4C
:102A900001221A754CF25030FFF7BAFE0346FB7361
:102AA000FB7B002B43D13B684FF0FF321A607B6801
:102AB0001B68012B12D17B68DB68DBB2184600F083
:102AC00043F84CF25030FFF7A3FE0346FB731D4B57
:102AD0001B691C4A23F00403136128E07B685B68D0
:102AE000BB601CE07B68DB68DBB21946B86800F0AD
:102AF00051F84CF25030FFF78BFE0346FB73114B3D
:102B00001B69104A23F07A031361FB7B002B03D06F
:102B10003B68BA681A600AE0BB680133BB607B6837
:102B20009A687B685B681344BA689A42DAD3044BAC
:102B300000221A75FB7B18461037BD4680BD00BFCA
:102B400068080020003C024080B483B000AF034618
:102B5000FB710F4B1B690E4A23F4407313610C4B3E
:102B60001B690B4A43F004031361094B1A69FB7993
:102B70001B021343064A43F480331361BFF34F8FA4
:102B800000BF00BF0C37BD465DF8047B704700BF37
:102B9000003C024080B485B000AF78600B46FB700B
:102BA0000023FB60FB78002B02D10023FB6010E0C8
:102BB000FB78012B03D14FF48073FB6009E0FB78B5
:102BC000022B03D14FF40073FB6002E04FF440731B
:102BD000FB60154B1B69144A23F440731361124BBD
:102BE0001A691149FB6813430B610F4B1B690E4AAD
:102BF00023F0F80313610C4B1A697B68DB00134365
:102C0000094A43F002031361074B1B69064A43F468
:102C100080331361BFF34F8F00BF00BF1437BD4631
:102C20005DF8047B704700BF003C024080B489B06F
:102C300000AF786039600023FB6100237B610023D3
:102C40003B610023BB610023FB6175E10122FB694D
:102C500002FA03F37B613B681B687A6913403B61AE
:102C60003A697B699A4240F064813B685B6803F093
:102C70000303012B05D03B685B6803F00303022BC1
:102C800030D17B689B68BB61FB695B00032202FA61
:102C900003F3DB43BA691340BB613B68DA68FB6945
:102CA0005B0002FA03F3BA691343BB617B68BA693C
:102CB0009A607B685B68BB610122FB6902FA03F3DF
:102CC000DB43BA691340BB613B685B681B0903F0D7
:102CD0000102FB6902FA03F3BA691343BB617B6823
:102CE000BA695A603B685B6803F00303032B17D093
:102CF0007B68DB68BB61FB695B00032202FA03F3BC
:102D0000DB43BA691340BB613B689A68FB695B00AF
:102D100002FA03F3BA691343BB617B68BA69DA60EC
:102D20003B685B6803F00303022B23D1FB69DA08DD
:102D30007B68083253F82230BB61FB6903F007035C
:102D40009B000F2202FA03F3DB43BA691340BB6115
:102D50003B681A69FB6903F007039B0002FA03F35F
:102D6000BA691343BB61FB69DA087B680832B96949
:102D700043F822107B681B68BB61FB695B00032280
:102D800002FA03F3DB43BA691340BB613B685B683B
:102D900003F00302FB695B0002FA03F3BA69134311
:102DA000BB617B68BA691A603B685B6803F44033B7
:102DB000002B00F0BE80664B5B6C654A43F4804399
:102DC0005364634B5B6C03F48043FB60FB68614AB4
:102DD000FB699B08023352F82330BB61FB6903F0A7
:102DE00003039B000F2202FA03F3DB43BA6913408B
:102DF000BB617B68584A934237D07B68574A9342FD
:102E000031D07B68564A93422BD07B68554A934217
:102E100025D07B68544A93421FD07B68534A934223
:102E200019D07B68524A934213D07B68514A93422F
:102E30000DD07B68504A934207D07B684F4A93423B
:102E400001D1092312E00A2310E008230EE0072332
:102E50000CE006230AE0052308E0042306E0032330
:102E600004E0022302E0012300E00023FA6902F0FB
:102E7000030292009340BA691343BB613549FB6971
:102E80009B080233BA6941F823203D4B9B68BB6124
:102E90003B69DB43BA691340BB613B685B6803F481
:102EA0008013002B03D0BA693B691343BB61344ADA
:102EB000BB699360324BDB68BB613B69DB43BA693A
:102EC0001340BB613B685B6803F40013002B03D025
:102ED000BA693B691343BB61294ABB69D360284B7C
:102EE0005B68BB613B69DB43BA691340BB613B680C
:102EF0005B6803F40033002B03D0BA693B691343CA
:102F0000BB611F4ABB6953601D4B1B68BB613B69BA
:102F1000DB43BA691340BB613B685B6803F48033F1
:102F2000002B03D0BA693B691343BB61144ABB69E8
:102F30001360FB690133FB61FB690F2B7FF686AEE3
:102F400000BF00BF2437BD465DF8047B704700BF5B
:102F500000380240003801400000024000040240F6
:102F600000080240000C0240001002400014024021
:102F700000180240001C02400020024000240240D1
:102F8000003C014080B483B000AF78600B467B808A
:102F900013467B707B78002B03D07A887B689A611C
:102FA00003E07B881A047B689A6100BF0C37BD463A
:102FB0005DF8047B7047000080B582B000AF00234D
:102FC0007B60234B1B6C224A43F080531364204BDD
:102FD0001B6C03F080533B603B681E4B1B681D4A13
:102FE00043F480331360FEF75FFE786009E0FEF77C
:102FF0005BFE02467B68D31AB3F57A7F01D90323BF
:1030000022E0144B5B6803F48033B3F5803FEED1CC
:10301000104B1B680F4A43F400331360FEF744FE65
:10302000786009E0FEF740FE02467B68D31AB3F5EC
:103030007A7F01D9032307E0064B5B6803F4003372
:10304000B3F5003FEED1002318460837BD4680BDDA
:10305000003802400070004080B586B000AF786054
:103060000023FB757B68002B01D1012391E27B6873
:103070001B6803F00103002B00F08780964B9B68D0
:1030800003F00C03042B0CD0934B9B6803F00C0350
:10309000082B12D1904B5B6803F48003B3F5800FCB
:1030A0000BD18D4B1B6803F40033002B6CD07B6875
:1030B0005B68002B68D101236BE27B685B68B3F52A
:1030C000803F06D1844B1B68834A43F480331360EE
:1030D0002EE07B685B68002B0CD17F4B1B687E4A1F
:1030E00023F4803313607C4B1B687B4A23F48023DA
:1030F00013601DE07B685B68B3F5A02F0CD1764BA5
:103100001B68754A43F480231360734B1B68724A33
:1031100043F4803313600BE06F4B1B686E4A23F45B
:10312000803313606C4B1B686B4A23F4802313605D
:103130007B685B68002B13D0FEF7B6FD386108E0B2
:10314000FEF7B2FD02463B69D31A642B01D9032373
:103150001FE2614B1B6803F40033002BF0D014E036
:10316000FEF7A2FD386108E0FEF79EFD02463B69CE
:10317000D31A642B01D903230BE2574B1B6803F4CA
:103180000033002BF0D100E000BF7B681B6803F028
:103190000203002B69D0504B9B6803F00C03002BFB
:1031A0000BD04D4B9B6803F00C03082B1CD14A4BF2
:1031B0005B6803F48003002B16D1474B1B6803F0B8
:1031C0000203002B05D07B68DB68012B01D00123B3
:1031D000DFE1414B1B6823F0F8027B681B69DB00D1
:1031E0003D4913430B6040E07B68DB68002B23D034
:1031F000394B1B68384A43F001031360FEF754FD56
:10320000386108E0FEF750FD02463B69D31A022BF5
:1032100001D90323BDE1304B1B6803F00203002BEF
:10322000F0D02D4B1B6823F0F8027B681B69DB0094
:10323000294913430B6018E0274B1B68264A23F0EB
:1032400001031360FEF730FD386108E0FEF72CFD46
:1032500002463B69D31A022B01D9032399E11E4B85
:103260001B6803F00203002BF0D17B681B6803F09E
:103270000803002B38D07B685B69002B19D0164BF4
:103280005B6F154A43F001035367FEF70DFD38618C
:1032900008E0FEF709FD02463B69D31A022B01D96B
:1032A000032376E10C4B5B6F03F00203002BF0D09D
:1032B0001AE0094B5B6F084A23F001035367FEF7DE
:1032C000F3FC38610AE0FEF7EFFC02463B69D31AD3
:1032D000022B03D903235CE100380240914B5B6F62
:1032E00003F00203002BEED17B681B6803F004039C
:1032F000002B00F0A4808B4B1B6C03F08053002B41
:103300000DD1884B1B6C874A43F080531364854B67
:103310001B6C03F08053BB60BB680123FB75824BC1
:103320001B6803F48073002B18D17F4B1B687E4A07
:1033300043F480731360FEF7B7FC386108E0FEF7D2
:10334000B3FC02463B69D31A642B01D9032320E165
:10335000754B1B6803F48073002BF0D07B689B686F
:10336000012B06D16F4B1B6F6E4A43F001031367AD
:103370002DE07B689B68002B0CD16A4B1B6F694A60
:1033800023F001031367674B1B6F664A23F00403A6
:1033900013671CE07B689B68052B0CD1614B1B6F8E
:1033A000604A43F0040313675E4B1B6F5D4A43F0B2
:1033B000010313670BE05B4B1B6F5A4A23F00103B9
:1033C0001367584B1B6F574A23F0040313677B683E
:1033D0009B68002B15D0FEF767FC38610AE0FEF70A
:1033E00063FC02463B69D31A41F28832934201D909
:1033F0000323CEE04B4B1B6F03F00203002BEED0F8
:1034000014E0FEF751FC38610AE0FEF74DFC02467D
:103410003B69D31A41F28832934201D90323B8E0C1
:10342000404B1B6F03F00203002BEED1FB7D012B01
:1034300005D13C4B1B6C3B4A23F0805313647B68E3
:103440009B69002B00F0A480364B9B6803F00C03B3
:10345000082B6BD07B689B69022B49D1314B1B68D1
:10346000304A23F080731360FEF71EFC386108E0D9
:10347000FEF71AFC02463B69D31A022B01D903233B
:1034800087E0284B1B6803F00073002BF0D17B68AA
:10349000DA697B681B6A1A437B685B6A9B011A4383
:1034A0007B689B6A5B08013B1B041A437B68DB6AF1
:1034B0001B0613431B4A43F000535360194B1B6810
:1034C000184A43F080731360FEF7EEFB386108E0A2
:1034D000FEF7EAFB02463B69D31A022B01D903230C
:1034E00057E0104B1B6803F00073002BF0D04FE047
:1034F0000C4B1B680B4A23F080731360FEF7D4FB60
:10350000386108E0FEF7D0FB02463B69D31A022B74
:1035100001D903233DE0034B1B6803F00073002B2C
:10352000F0D135E000380240007000401B4B5B6872
:10353000FB607B689B69012B28D0FB6803F4800249
:103540007B68DB699A4221D1FB6803F03F027B680C
:103550001B6A9A421AD1FA6847F6C07313407A6818
:10356000526A9201934211D1FB6803F440327B68A6
:103570009B6A5B08013B1B049A4207D1FB6803F07E
:1035800070627B68DB6A1B069A4201D0012300E06F
:10359000002318461837BD4680BD00BF00380240E2
:1035A00080B584B000AF786039600023FB607B6831
:1035B000002B01D10123D0E06A4B1B6803F00F03FD
:1035C0003A689A4210D9674B1B6823F00F0265498D
:1035D0003B6813430B60634B1B6803F00F033A68AF
:1035E0009A4201D00123B8E07B681B6803F0020314
:1035F000002B20D07B681B6803F00403002B05D050
:10360000594B9B68584A43F4E05393607B681B68AE
:1036100003F00803002B05D0534B9B68524A43F438
:1036200060439360504B9B6823F0F0027B689B687B
:103630004D4913438B607B681B6803F00103002B2B
:1036400040D07B685B68012B07D1474B1B6803F4B4
:103650000033002B15D101237FE07B685B68022BD0
:1036600007D1414B1B6803F00073002B09D10123E4
:1036700073E03D4B1B6803F00203002B01D10123D3
:103680006BE0394B9B6823F003027B685B6836492B
:1036900013438B60FEF708FBF8600AE0FEF704FBBB
:1036A0000246FB68D31A41F28832934201D90323C0
:1036B00053E02D4B9B6803F00C027B685B689B001A
:1036C0009A42EBD1274B1B6803F00F033A689A42EA
:1036D00010D2244B1B6823F00F0222493B6813438E
:1036E0000B60204B1B6803F00F033A689A4201D02D
:1036F000012332E07B681B6803F00403002B08D031
:10370000194B9B6823F4E0527B68DB68164913432E
:103710008B607B681B6803F00803002B09D0124BF9
:103720009B6823F460427B681B69DB000E491343EE
:103730008B6000F021F802460B4B9B681B0903F0DD
:103740000F030A49CB5C22FA03F3094A1360094BC1
:103750001B681846FEF7B2F8002318461037BD461E
:1037600080BD00BF003C0240003802407C7700086A
:1037700000000020040000202DE9B04F90B000AF01
:1037800000237B630023FB6300233B630023BB63B5
:10379000594B9B6803F00C03082B0DD0082B00F24B
:1037A000A180002B02D0042B03D09BE0534BBB63C2
:1037B0009BE0534BBB6398E04F4B5B6803F03F03C8
:1037C0007B634D4B5B6803F48003002B28D04A4B8E
:1037D0005B689B0900223B627A623B6AC3F3080084
:1037E0000021474B03FB01F2002300FB03F31344CA
:1037F000434AA0FB0212FA620A46BA62FA6A13440A
:10380000FB627B6B0022BB61FA61D7E90623D7E933
:103810000A01FCF74DFD02460B461346FB6353E0DD
:10382000354B5B689B0900223B617A613B69C3F3BE
:10383000080A4FF0000B52465B464FF000004FF075
:103840000001590141EAD261500102460B46B2EB38
:103850000A0863EB0B094FF000024FF000034FEA38
:10386000891343EA98634FEA8812B2EB080463EBCA
:1038700009054FF000024FF00003EB0043EA5473D8
:10388000E20014461D4614EB0A033B6045EB0B03B4
:103890007B604FF000024FF00003D7E90045294656
:1038A0008B02214643EA915321468A02104619466B
:1038B0007B6B0022BB60FA60D7E90223FCF7F8FCBF
:1038C00002460B461346FB630B4B5B681B0C03F075
:1038D000030301335B003B63FA6B3B6BB2FBF3F317
:1038E000BB6302E0054BBB6300BFBB6B18464037B0
:1038F000BD46BDE8B08F00BF003802400024F40090
:1039000040787D0180B400AF034B1B681846BD466C
:103910005DF8047B704700BF0000002080B500AF59
:10392000FFF7F0FF0246054B9B689B0A03F0070375
:103930000349CB5C22FA03F3184680BD00380240ED
:103940008C77000880B500AFFFF7DCFF0246054B1F
:103950009B685B0B03F007030349CB5C22FA03F37C
:10396000184680BD003802408C77000880B483B0D0
:1039700000AF786039607B680F221A60124B9B6839
:1039800003F003027B685A600F4B9B6803F0F00260
:103990007B689A600C4B9B6803F4E0527B68DA60AA
:1039A000094B9B68DB0803F4E0527B681A61074B04
:1039B0001B6803F00F023B681A6000BF0C37BD465E
:1039C0005DF8047B704700BF00380240003C0240B5
:1039D00080B588B000AF786000237B6100233B6135
:1039E0000023FB600023FB610023BB617B681B6835
:1039F00003F00103002B12D0694B9B68684A23F443
:103A000000039360664B9A687B685B6B6449134361
:103A10008B607B685B6B002B01D10123FB617B68B2
:103A20001B6803F40023002B17D05D4BD3F88C30B8
:103A300023F440127B68DB6B59491343C1F88C3087
:103A40007B68DB6BB3F5801F01D10123FB617B68D1
:103A5000DB6B002B01D10123BB617B681B6803F486
:103A60008013002B17D04E4BD3F88C3023F4400238
:103A70007B681B6C4A491343C1F88C307B681B6C14
:103A8000B3F5800F01D10123FB617B681B6C002B18
:103A900001D10123BB617B681B6803F08073002B9D
:103AA00001D00123FB617B681B6803F02003002B1E
:103AB00000F08B803A4B1B6C394A43F080531364FF
:103AC000374B1B6C03F08053BB60BB68354B1B68E6
:103AD000344A43F480731360FEF7E6F8786108E037
:103AE000FEF7E2F802467B69D31A642B01D903235F
:103AF00057E32C4B1B6803F48073002BF0D0284B4A
:103B00001B6F03F440733B613B69002B35D07B682E
:103B10001B6B03F440733A699A422ED0204B1B6F03
:103B200023F440733B611E4B1B6F1D4A43F48033EB
:103B300013671B4B1B6F1A4A23F480331367184A11
:103B40003B691367164B1B6F03F00103012B14D164
:103B5000FEF7AAF878610AE0FEF7A6F802467B694C
:103B6000D31A41F28832934201D9032319E30C4B53
:103B70001B6F03F00203002BEED07B681B6B03F47A
:103B80004073B3F5407F11D1054B9B6823F4F812C5
:103B90007B68196B044B0B40014913438B600BE0AE
:103BA0000038024000700040FFFCFF0FAA4B9B68EA
:103BB000A94A23F4F8139360A74B1A6F7B681B6B19
:103BC000C3F30B03A44913430B677B681B6803F023
:103BD0001003002B10D0A04BD3F88C309E4A23F05A
:103BE0008073C2F88C309C4BD3F88C207B689B6B25
:103BF00099491343C1F88C307B681B6803F48043F8
:103C0000002B0AD0944BD3F8903023F440327B68D9
:103C10005B6E91491343C1F890307B681B6803F4D5
:103C20000043002B0AD08C4BD3F8903023F4402271
:103C30007B689B6E88491343C1F890307B681B6892
:103C400003F48033002B0AD0834BD3F8903023F455
:103C500040127B68DB6E80491343C1F890307B686B
:103C60001B6803F40033002B0AD07B4BD3F8903051
:103C700023F440027B681B6F77491343C1F89030EF
:103C80007B681B6803F04003002B0AD0724BD3F80B
:103C9000903023F003027B685B6C6F491343C1F8DB
:103CA00090307B681B6803F08003002B0AD06A4BBE
:103CB000D3F8903023F00C027B689B6C6649134369
:103CC000C1F890307B681B6803F48073002B0AD026
:103CD000614BD3F8903023F030027B68DB6C5E4997
:103CE0001343C1F890307B681B6803F40073002B0A
:103CF0000AD0594BD3F8903023F0C0027B681B6D7B
:103D000055491343C1F890307B681B6803F4806306
:103D1000002B0AD0504BD3F8903023F440727B68CC
:103D20005B6D4D491343C1F890307B681B6803F409
:103D30000063002B0AD0484BD3F8903023F4406244
:103D40007B689B6D44491343C1F890307B681B68C6
:103D500003F48053002B0AD03F4BD3F8903023F468
:103D600040527B68DB6D3C491343C1F890307B685F
:103D70001B6803F40053002B0AD0374BD3F8903064
:103D800023F440427B681B6E33491343C1F89030E3
:103D90007B681B6803F48003002B0AD02E4BD3F8FA
:103DA000903023F080627B689B6F2B491343C1F8EE
:103DB00090307B681B6803F40013002B11D0264B56
:103DC000D3F8903023F000627B68DB6F2249134305
:103DD000C1F890307B68DB6FB3F1006F01D1012334
:103DE000BB617B681B6803F00803002B01D0012333
:103DF000BB617B681B6803F48023002B0AD0164B41
:103E0000D3F8903023F040727B685B6F1249134304
:103E1000C1F890307B681B6803F40003002B0BD0C3
:103E20000D4BD3F8903023F080527B68D3F880306C
:103E300009491343C1F89030FB69012B06D07B6818
:103E40001B6803F00073002B00F0D980024B1B6845
:103E5000014A23F0806301E0003802401360FDF75F
:103E600023FF786108E0FDF71FFF02467B69D31A44
:103E7000642B01D9032394E16C4B1B6803F00063AE
:103E8000002BF0D17B681B6803F00103002B21D0CD
:103E90007B685B6B002B1DD1644BD3F884301B0C0B
:103EA00003F003033B61614BD3F884301B0E03F036
:103EB0000F03FB607B685B689A013B691B041A4334
:103EC000FB681B061A437B689B681B075749134313
:103ED000C1F884307B681B6803F40023002B04D0F6
:103EE0007B68DB6BB3F5801F0AD07B681B6803F42B
:103EF0008013002B2ED07B681B6CB3F5800F29D16B
:103F00004A4BD3F884301B0C03F003033B61474B4F
:103F1000D3F884301B0F03F00703FB607B685B68FA
:103F20009A013B691B041A437B68DB681B061A4332
:103F3000FB681B073D491343C1F884303B4BD3F862
:103F40008C3023F01F027B685B6A013B37491343C7
:103F5000C1F88C307B681B6803F08073002B1DD088
:103F6000324BD3F884301B0E03F00F033B612F4B11
:103F7000D3F884301B0F03F00703FB607B685B689A
:103F80009A017B681B691B041A433B691B061A4391
:103F9000FB681B0725491343C1F884307B681B6805
:103FA00003F00073002B11D07B685B689A017B687B
:103FB0001B691B041A437B68DB681B061A437B687A
:103FC0009B681B0719491343C1F88430174B1B68C2
:103FD000164A43F080631360FDF766FE786108E0DF
:103FE000FDF762FE02467B69D31A642B01D90323D5
:103FF000D7E00E4B1B6803F00063002BF0D0BB69C9
:10400000012B40F0CD80094B1B68084A23F08053F8
:104010001360FDF749FE78610AE0FDF745FE0246B0
:104020007B69D31A642B03D90323BAE0003802401A
:104030005E4B1B6803F00053B3F1005FEDD07B686B
:104040001B6803F40023002B03D07B68DB6B002B81
:1040500009D07B681B6803F48013002B2ED07B688B
:104060001B6C002B2AD1514BD3F888301B0C03F06A
:1040700003033B614D4BD3F888301B0F03F007035C
:10408000FB607B685B699A013B691B041A437B6890
:104090009B691B061A43FB681B0744491343C1F87D
:1040A0008830424BD3F88C3023F4F8527B689B6AFB
:1040B000013B1B023D491343C1F88C307B681B68F0
:1040C00003F40013002B22D07B68DB6FB3F1006F89
:1040D0001DD1364BD3F888301B0E03F00F033B6124
:1040E000324BD3F888301B0F03F00703FB607B686B
:1040F0005B699A017B681B6A1B041A433B691B06B8
:104100001A43FB681B0729491343C1F888307B68B1
:104110001B6803F00803002B28D0244BD3F8883009
:104120001B0E03F00F033B61204BD3F888301B0CB0
:1041300003F00303FB607B685B699A01FB681B0467
:104140001A433B691B061A437B68DB691B07174947
:104150001343C1F88830154BD3F88C3023F4403228
:104160007B68DB6A11491343C1F88C300F4B1B6825
:104170000E4A43F080531360FDF796FD786108E026
:10418000FDF792FD02467B69D31A642B01D9032304
:1041900007E0064B1B6803F00053B3F1005FEFD15B
:1041A000002318462037BD4680BD00BF00380240BE
:1041B00080B584B000AFF860B9607A60FB68002B0E
:1041C00001D1012338E0FB6893F84530DBB2002BC6
:1041D00006D1FB68002283F84420F868FDF764FBF1
:1041E000FB681A68FB6808331946104602F046F867
:1041F000FB681868FB689B681A46B96802F0CEF83D
:10420000FB685868FB689A68FB68DB6A796802F0AB
:1042100015F9FB681B68FA68926853F82210FB686E
:104220001B68FA68926841F0010143F82210FB68AC
:10423000012283F84520002318461037BD4680BD73
:1042400080B582B000AF78607B68002B01D101237C
:1042500049E07B6893F83D30DBB2002B06D17B68E8
:10426000002283F83C207868FDF7D4F87B680222AE
:1042700083F83D207B681A687B6804331946104632
:1042800000F0F6F97B68012283F848207B68012260
:1042900083F83E207B68012283F83F207B6801225F
:1042A00083F840207B68012283F841207B6801224B
:1042B00083F842207B68012283F843207B68012237
:1042C00083F844207B68012283F845207B68012223
:1042D00083F846207B68012283F847207B6801220F
:1042E00083F83D20002318460837BD4680BD0000F6
:1042F00080B485B000AF78607B6893F83D30DBB266
:10430000012B01D0012354E07B68022283F83D2079
:104310007B681B68DA687B681B6842F00102DA6020
:104320007B681B68264A934222D07B681B68B3F1E6
:10433000804F1DD07B681B68224A934218D07B684F
:104340001B68214A934213D07B681B681F4A934223
:104350000ED07B681B681E4A934209D07B681B689D
:104360001C4A934204D07B681B681B4A934215D1B8
:104370007B681B689A68194B1340FB60FB68062B2F
:1043800015D0FB68B3F5803F11D07B681B681A68B5
:104390007B681B6842F001021A6008E07B681B68BA
:1043A0001A687B681B6842F001021A6000E000BFD7
:1043B000002318461437BD465DF8047B704700BFE4
:1043C000000001400004004000080040000C0040D4
:1043D00000040140004001400018004007000100B7
:1043E00080B582B000AF78607B681B681B6903F002
:1043F0000203022B22D17B681B68DB6803F00203F7
:10440000022B1BD17B681B686FF002021A617B686C
:1044100001221A777B681B689B6903F00303002B5A
:1044200003D0786800F005F905E0786800F0F7F847
:10443000786800F008F97B6800221A777B681B68AF
:104440001B6903F00403042B22D17B681B68DB6823
:1044500003F00403042B1BD17B681B686FF004027C
:104460001A617B6802221A777B681B689B6903F4D8
:104470004073002B03D0786800F0DBF805E0786823
:1044800000F0CDF8786800F0DEF87B6800221A773B
:104490007B681B681B6903F00803082B22D17B682B
:1044A0001B68DB6803F00803082B1BD17B681B68C3
:1044B0006FF008021A617B6804221A777B681B6818
:1044C000DB6903F00303002B03D0786800F0B1F838
:1044D00005E0786800F0A3F8786800F0B4F87B682D
:1044E00000221A777B681B681B6903F01003102BEE
:1044F00022D17B681B68DB6803F01003102B1BD1F3
:104500007B681B686FF010021A617B6808221A77BB
:104510007B681B68DB6903F44073002B03D0786869
:1045200000F087F805E0786800F079F8786800F026
:104530008AF87B6800221A777B681B681B6903F086
:104540000103012B0ED17B681B68DB6803F00103BC
:10455000012B07D17B681B686FF001021A61786834
:10456000FCF7D0FE7B681B681B6903F08003802B7F
:104570000ED17B681B68DB6803F08003802B07D1BA
:104580007B681B686FF080021A61786800F0A8F9F8
:104590007B681B681B6903F48073B3F5807F0ED1C1
:1045A0007B681B68DB6803F08003802B07D17B6886
:1045B0001B686FF480721A61786800F09BF97B6861
:1045C0001B681B6903F04003402B0ED17B681B68FE
:1045D000DB6803F04003402B07D17B681B686FF05A
:1045E00040021A61786800F038F87B681B681B6924
:1045F00003F02003202B0ED17B681B68DB6803F0DF
:104600002003202B07D17B681B686FF020021A6102
:10461000786800F05BF900BF0837BD4680BD80B404
:1046200083B000AF786000BF0C37BD465DF8047BF7
:10463000704780B483B000AF786000BF0C37BD46D0
:104640005DF8047B704780B483B000AF786000BF32
:104650000C37BD465DF8047B704780B483B000AF73
:10466000786000BF0C37BD465DF8047B70470000E2
:1046700080B485B000AF786039607B681B68FB60F0
:104680007B68404A934213D07B68B3F1804F0FD0D0
:104690007B683D4A93420BD07B683C4A934207D0EB
:1046A0007B683B4A934203D07B683A4A934208D1E5
:1046B000FB6823F07003FB603B685B68FA68134398
:1046C000FB607B682F4A93422BD07B68B3F1804F0D
:1046D00027D07B682C4A934223D07B682B4A934295
:1046E0001FD07B682A4A93421BD07B68294A934299
:1046F00017D07B68284A934213D07B68274A93429D
:104700000FD07B68264A93420BD07B68254A9342A0
:1047100007D07B68244A934203D07B68234A9342A4
:1047200008D1FB6823F44073FB603B68DB68FA68E0
:104730001343FB60FB6823F080023B685B69134313
:10474000FB607B68FA681A603B689A687B68DA628B
:104750003B681A687B689A627B680A4A934203D076
:104760007B680C4A934203D13B681A697B681A63E1
:104770007B6801225A6100BF1437BD465DF8047B97
:10478000704700BF000001400004004000080040E6
:10479000000C004000040140004001400044014082
:1047A0000048014000180040001C0040002000406C
:1047B00080B485B000AF786039607B6893F83C3096
:1047C000012B01D102236DE07B68012283F83C209C
:1047D0007B68022283F83D207B681B685B68FB6076
:1047E0007B681B689B68BB607B681B68304A934290
:1047F00004D07B681B682F4A934208D1FB6823F4DE
:104800007003FB603B685B68FA681343FB60FB68FE
:1048100023F07003FB603B681B68FA681343FB607E
:104820007B681B68FA685A607B681B68204A934261
:1048300022D07B681B68B3F1804F1DD07B681B685A
:104840001D4A934218D07B681B681C4A934213D0C0
:104850007B681B681A4A93420ED07B681B68154A16
:10486000934209D07B681B68164A934204D07B6848
:104870001B68154A93420CD1BB6823F08003BB60D0
:104880003B689B68BA681343BB607B681B68BA6867
:104890009A607B68012283F83D207B68002283F8C0
:1048A0003C20002318461437BD465DF8047B704752
:1048B00000000140000401400004004000080040E6
:1048C000000C0040004001400018004080B483B05C
:1048D00000AF786000BF0C37BD465DF8047B7047C1
:1048E00080B483B000AF786000BF0C37BD465DF880
:1048F000047B704780B483B000AF786000BF0C3792
:10490000BD465DF8047B704780B582B000AF78602B
:104910007B68002B01D1012340E07B68DB6F002B1B
:1049200006D17B68002283F878207868FCF798FD30
:104930007B682422DA677B681B681A687B681B68BF
:1049400022F001021A60786800F008FD0346012B8E
:1049500001D1012322E07B685B6A002B02D07868DA
:1049600000F060FF7B681B685A687B681B6822F454
:1049700090425A607B681B689A687B681B6822F0CB
:104980002A029A607B681B681A687B681B6842F081
:1049900001021A60786800F0E7FF034618460837FE
:1049A000BD4680BD80B58AB002AFF860B9603B609B
:1049B0001346FB80FB68DB6F202B71D1BB68002B9B
:1049C00002D0FB88002B01D101236AE0FB680022A2
:1049D000C3F88420FB682122DA67FDF765F9786166
:1049E000FB68FA88A3F85020FB68FA88A3F85220E5
:1049F000FB689B68B3F5805F08D1FB681B69002BDF
:104A000004D10023FB61BB68BB6103E0BB68FB61B1
:104A10000023BB612CE03B6800937B69002280216E
:104A2000F86800F0D8FF0346002B01D0032338E0DC
:104A3000FB69002B0BD1BB691B881A46FB681B68FE
:104A4000C2F308029A62BB690233BB6107E0FB69EB
:104A50001A78FB681B689A62FB690133FB61FB688B
:104A6000B3F852309BB2013B9AB2FB68A3F85220D4
:104A7000FB68B3F852309BB2002BCCD13B6800935B
:104A80007B6900224021F86800F0A5FF0346002B57
:104A900001D0032305E0FB682022DA67002300E051
:104AA000022318462037BD4680BD80B58AB002AFCC
:104AB000F860B9603B601346FB80FB68D3F8803038
:104AC000202B40F0B180BB68002B02D0FB88002B6C
:104AD00001D10123A9E0FB680022C3F88420FB6810
:104AE0002222C3F88020FB6800221A66FDF7DCF85A
:104AF0007861FB68FA88A3F85820FB68FA88A3F865
:104B00005A20FB689B68B3F5805F0ED1FB681B6978
:104B1000002B05D1FB6840F2FF12A3F85C202DE0CA
:104B2000FB68FF22A3F85C2028E0FB689B68002B51
:104B30000DD1FB681B69002B04D1FB68FF22A3F891
:104B40005C201BE0FB687F22A3F85C2016E0FB687A
:104B50009B68B3F1805F0DD1FB681B69002B04D10A
:104B6000FB687F22A3F85C2008E0FB683F22A3F8E3
:104B70005C2003E0FB680022A3F85C20FB68B3F82C
:104B80005C307B82FB689B68B3F5805F08D1FB6873
:104B90001B69002B04D10023FB61BB68BB6103E0F0
:104BA000BB68FB610023BB6132E03B6800937B691B
:104BB00000222021F86800F00EFF0346002B01D0F0
:104BC000032332E0FB69002B0CD1FB681B685B6A96
:104BD0009AB27B8A13409AB2BB691A80BB690233CE
:104BE000BB610CE0FB681B685B6ADAB27B8ADBB2F4
:104BF0001340DAB2FB691A70FB690133FB61FB6891
:104C0000B3F85A309BB2013B9AB2FB68A3F85A2022
:104C1000FB68B3F85A309BB2002BC6D1FB68202248
:104C2000C3F88020002300E0022318462037BD4649
:104C300080BD000080B48BB000AFF860B96013464F
:104C4000FB80FB68DB6F202B47D1BB68002B02D0B9
:104C5000FB88002B01D1012340E0FB68BA68DA64CD
:104C6000FB68FA88A3F85020FB68FA88A3F8522062
:104C7000FB680022DA66FB680022C3F88420FB6828
:104C80002122DA67FB689B68B3F5805F07D1FB6878
:104C90001B69002B03D1FB68134ADA6602E0FB684C
:104CA000124ADA66FB681B687B617B6953E8003F48
:104CB0003B613B6943F080037B62FB681B681A46DB
:104CC0007B6A3B62FA61F9693A6A41E80023BB6199
:104CD000BB69002BE6D1002300E0022318462C37E5
:104CE000BD465DF8047B70479B5E0008E55D0008EB
:104CF00080B58AB000AFF860B9601346FB80FB68EE
:104D0000D3F88030202B32D1BB68002B02D0FB8837
:104D1000002B01D101232BE0FB6800221A66FB68FF
:104D20001B685B6803F40003002B18D0FB681B684A
:104D30007B617B6953E8003F3B613B6943F08063E3
:104D40007B62FB681B681A467B6A3B62FA61F96901
:104D50003A6A41E80023BB61BB69002BE6D1FB88BE
:104D60001A46B968F86800F0FDFE034600E0022329
:104D700018462837BD4680BD80B5BAB000AF786010
:104D80007B681B68DB69C7F8E4307B681B681B68BD
:104D9000C7F8E0307B681B689B68C7F8DC30D7F841
:104DA000E42040F60F031340C7F8D830D7F8D830C6
:104DB000002B15D1D7F8E43003F02003002B0FD0DF
:104DC000D7F8E03003F02003002B09D07B689B6EFE
:104DD000002B00F097827B689B6E7868984791E281
:104DE000D7F8D830002B00F01781D7F8DC3003F06B
:104DF0000103002B06D1D7F8E020854B1340002B90
:104E000000F00A81D7F8E43003F00103002B11D041
:104E1000D7F8E03003F48073002B0BD07B681B685D
:104E200001221A627B68D3F8843043F001027B6868
:104E3000C3F88420D7F8E43003F00203002B11D02C
:104E4000D7F8DC3003F00103002B0BD07B681B6824
:104E500002221A627B68D3F8843043F004027B6834
:104E6000C3F88420D7F8E43003F00403002B11D0FA
:104E7000D7F8DC3003F00103002B0BD07B681B68F4
:104E800004221A627B68D3F8843043F002027B6804
:104E9000C3F88420D7F8E43003F00803002B17D0C0
:104EA000D7F8E03003F02003002B05D1D7F8DC3031
:104EB00003F00103002B0BD07B681B6808221A62E9
:104EC0007B68D3F8843043F008027B68C3F8842001
:104ED000D7F8E43003F40063002B12D0D7F8E030A9
:104EE00003F08063002B0CD07B681B684FF40062DA
:104EF0001A627B68D3F8843043F020027B68C3F8E1
:104F000084207B68D3F88430002B00F0FD81D7F833
:104F1000E43003F02003002B0DD0D7F8E03003F08D
:104F20002003002B07D07B689B6E002B03D07B688F
:104F30009B6E786898477B68D3F88430C7F8D43084
:104F40007B681B689B6803F04003402B05D0D7F8B3
:104F5000D43003F02803002B4FD0786800F0C8FE4F
:104F60007B681B689B6803F04003402B41D17B6842
:104F70001B680833C7F89C30D7F89C3053E8003FD3
:104F8000C7F89830D7F8983023F04003C7F8D030EE
:104F90007B681B680833D7F8D020C7F8A820C7F86B
:104FA000A430D7F8A410D7F8A82041E80023C7F808
:104FB000A030D7F8A030002BD9D17B685B6F002BD5
:104FC00013D07B685B6F134A1A657B685B6F18466A
:104FD000FDF76DFB0346002B17D07B685B6F1B6DE5
:104FE0007A68526F104698470FE0786800F0A0F991
:104FF0000BE0786800F09CF907E0786800F098F919
:105000007B680022C3F884207EE100BF7CE100BF02
:1050100020010004B95D00087B681B6E012B40F085
:105020004C81D7F8E43003F01003002B00F04581E9
:10503000D7F8E03003F01003002B00F03E817B68CE
:105040001B6810221A627B681B689B6803F0400390
:10505000402B40F0B6807B685B6F1B685B68A7F8ED
:10506000BE30B7F8BE30002B00F050817B68B3F83B
:105070005830B7F8BE209A4280F048817B68B7F874
:10508000BE20A3F85A207B685B6FDB69B3F5807F95
:1050900000F086807B681B68C7F88830D7F88830B6
:1050A00053E8003FC7F88430D7F8843023F4807386
:1050B000C7F8B8307B681B681A46D7F8B830C7F80D
:1050C0009430C7F89020D7F89010D7F8942041E892
:1050D0000023C7F88C30D7F88C30002BDAD17B68EE
:1050E0001B6808337B677B6F53E8003F3B673B6F70
:1050F00023F00103C7F8B4307B681B680833D7F886
:10510000B420C7F88020FB67F96FD7F8802041E80A
:105110000023BB67BB6F002BE1D17B681B680833A2
:105120003B663B6E53E8003FFB65FB6D23F040039D
:10513000C7F8B0307B681B680833D7F8B020FA6630
:10514000BB66B96EFA6E41E800237B667B6E002B6E
:10515000E3D17B682022C3F880207B6800221A6696
:105160007B681B68FB64FB6C53E8003FBB64BB6C53
:1051700023F01003C7F8AC307B681B681A46D7F8D9
:10518000AC30BB657A65796DBA6D41E800233B654B
:105190003B6D002BE4D17B685B6F1846FDF717FA77
:1051A0007B6802225A667B68B3F858207B68B3F8A4
:1051B0005A309BB2D31A9BB21946786800F0C2F8F5
:1051C000A4E07B68B3F858207B68B3F85A309BB2F0
:1051D000D31AA7F8CE307B68B3F85A309BB2002BB5
:1051E00000F09680B7F8CE30002B00F091807B68FD
:1051F0001B68BB63BB6B53E8003F7B637B6B23F493
:105200009073C7F8C8307B681B681A46D7F8C83057
:105210007B643A64396C7A6C41E80023FB63FB6B76
:10522000002BE4D17B681B6808337B627B6A53E800
:10523000003F3B623B6A23F00103C7F8C4307B6840
:105240001B680833D7F8C4203A63FB62F96A3A6BEB
:1052500041E80023BB62BB6A002BE3D17B682022BC
:10526000C3F880207B6800221A667B6800229A6659
:105270007B681B683B613B6953E8003FFB60FB6850
:1052800023F01003C7F8C0307B681B681A46D7F8B4
:10529000C030FB61BA61B969FA6941E800237B61FA
:1052A0007B69002BE4D17B6802225A66B7F8CE30C6
:1052B0001946786800F046F82AE0D7F8E43003F0A1
:1052C0008003002B0ED0D7F8E03003F08003002BD2
:1052D00008D07B68DB6E002B1CD07B68DB6E7868A7
:1052E000984717E0D7F8E43003F04003002B12D0C2
:1052F000D7F8E03003F04003002B0CD0786800F0C2
:105300002CFE08E000BF06E000BF04E000BF02E0A2
:1053100000BF00E000BFE837BD4680BD80B483B069
:1053200000AF786000BF0C37BD465DF8047B704766
:1053300080B483B000AF786000BF0C37BD465DF825
:10534000047B704780B483B000AF78600B467B80ED
:1053500000BF0C37BD465DF8047B704780B588B050
:1053600000AF78600023BB777B689A687B681B6915
:105370001A437B685B691A437B68DB6913437B6173
:105380007B681B681A68A64B13407A6812687969B3
:105390000B4313607B681B685B6823F440517B6898
:1053A000DA687B681B680A435A607B689B697B618B
:1053B0007B681B6A7A6913437B617B681B689B6807
:1053C00023F430617B681B687A690A439A607B68C2
:1053D0001B68944A934220D1934BD3F8903003F04A
:1053E0000303032B16D801A252F823F0FD53000843
:1053F00009540008035400080F5400080123FB77E8
:1054000050E10223FB774DE10423FB774AE10823B7
:10541000FB7747E11023FB7744E17B681B68834AF5
:10542000934232D1804BD3F8903003F00C030C2B15
:1054300028D801A252F823F06D54000885540008C2
:1054400085540008855400087954000885540008E4
:1054500085540008855400087354000885540008DA
:1054600085540008855400087F5400080023FB770A
:1054700018E10223FB7715E10423FB7712E10823EF
:10548000FB770FE11023FB770CE17B681B68684A10
:10549000934220D1644BD3F8903003F03003302B8B
:1054A00013D0302B14D8202B09D0202B10D8002B50
:1054B00002D0102B06D00BE00023FB77F2E0022392
:1054C000FB77EFE00423FB77ECE00823FB77E9E0D0
:1054D0001023FB77E6E07B681B68564A934220D195
:1054E000514BD3F8903003F0C003C02B13D0C02B26
:1054F00014D8802B09D0802B10D8002B02D0402B41
:1055000006D00BE00023FB77CCE00223FB77C9E059
:105510000423FB77C6E00823FB77C3E01023FB7767
:10552000C0E07B681B68444A934225D13E4BD3F8C8
:10553000903003F44073B3F5407F17D0B3F5407F4C
:1055400017D8B3F5007F0BD0B3F5007F11D8002B2F
:1055500003D0B3F5807F06D00BE00023FB77A1E0FA
:105560000223FB779EE00423FB779BE00823FB7775
:1055700098E01023FB7795E07B681B682F4A9342E5
:1055800025D1294BD3F8903003F44063B3F5406F35
:1055900017D0B3F5406F17D8B3F5006F0BD0B3F544
:1055A000006F11D8002B03D0B3F5806F06D00BE04D
:1055B0000123FB7776E00223FB7773E00423FB777C
:1055C00070E00823FB776DE01023FB776AE07B68CF
:1055D0001B681B4A934238D1134BD3F8903003F425
:1055E0004053B3F5405F17D0B3F5405F2AD8B3F509
:1055F000005F0BD0B3F5005F24D8002B03D0B3F5C8
:10560000805F06D01EE00023FB774BE00223FB7790
:1056100048E00423FB7745E00823FB7742E000BF26
:10562000F369FFEF001001400038024000440040E1
:1056300000480040004C0040005000400014014071
:10564000007800401023FB772CE07B681B68724ACF
:10565000934225D1714BD3F8903003F44043B3F516
:10566000404F17D0B3F5404F17D8B3F5004F0BD0CC
:10567000B3F5004F11D8002B03D0B3F5804F06D0FF
:105680000BE00023FB770DE00223FB770AE0042305
:10569000FB7707E00823FB7704E01023FB7701E0AA
:1056A0001023FB777B68DB69B3F5004F5BD1FB7F91
:1056B000082B28D801A252F823F000BFE1560008B9
:1056C000E9560008F156000807570008F756000889
:1056D000075700080757000807570008FF5600083B
:1056E000FEF71CF9B86113E0FEF72CF9B8610FE082
:1056F0004B4BBB610CE0FEF73FF8B86108E04FF49C
:105700000043BB6104E00023BB610123BB7700BF02
:10571000BB69002B74D0BB695A007B685B685B086F
:105720001A447B685B68B2FBF3F33B613B690F2B68
:1057300016D93B69B3F5803F12D23B699BB223F087
:105740000F03FB813B695B089BB203F007039AB22E
:10575000FB891343FB817B681B68FA89DA604FE0A1
:105760000123BB774CE0FB7F082B28D801A252F81D
:1057700023F000BF99570008A1570008A957000857
:10578000BF570008AF570008BF570008BF570008B1
:10579000BF570008B7570008FEF7C0F8B86113E01C
:1057A000FEF7D0F8B8610FE01D4BBB610CE0FDF7D0
:1057B000E3FFB86108E04FF40043BB6104E000235D
:1057C000BB610123BB7700BFBB69002B18D07B688E
:1057D0005B685A08BB691A447B685B68B2FBF3F3E9
:1057E0003B613B690F2B09D93B69B3F5803F05D27B
:1057F0003B699AB27B681B68DA6001E00123BB77E2
:105800007B6800229A667B680022DA66BB7F1846B6
:105810002037BD4680BD00BF007C004000380240FC
:105820000024F40080B483B000AF78607B685B6ACA
:1058300003F00103002B0AD07B681B685B6823F42C
:1058400000317B689A6A7B681B680A435A607B68F0
:105850005B6A03F00203002B0AD07B681B685B685D
:1058600023F480317B68DA6A7B681B680A435A60DC
:105870007B685B6A03F00403002B0AD07B681B681B
:105880005B6823F480217B681A6B7B681B680A4382
:105890005A607B685B6A03F00803002B0AD07B68C0
:1058A0001B685B6823F400417B685A6B7B681B684C
:1058B0000A435A607B685B6A03F01003002B0AD02E
:1058C0007B681B689B6823F480517B689A6B7B68BC
:1058D0001B680A439A607B685B6A03F02003002B15
:1058E0000AD07B681B689B6823F400517B68DA6BE5
:1058F0007B681B680A439A607B685B6A03F040031D
:10590000002B1AD07B681B685B6823F480117B68CE
:105910001A6C7B681B680A435A607B681B6CB3F582
:10592000801F0AD17B681B685B6823F4C0017B6819
:105930005A6C7B681B680A435A607B685B6A03F099
:105940008003002B0AD07B681B685B6823F400216E
:105950007B689A6C7B681B680A435A6000BF0C37EF
:10596000BD465DF8047B704780B586B002AF7860B5
:105970007B680022C3F88420FCF796F9F8607B6806
:105980001B681B6803F00803082B0ED16FF07E43E1
:105990000093FB6800224FF40011786800F01BF8B8
:1059A0000346002B01D0032311E07B682022DA6735
:1059B0007B682022C3F880207B6800221A667B68FF
:1059C00000225A667B68002283F87820002318465C
:1059D0001037BD4680BD80B59CB000AFF860B9609F
:1059E0003B601346FB71A7E0BB6FB3F1FF3F00F0D4
:1059F000A380FCF759F902463B68D31ABA6F9A4262
:105A000002D3BB6F002B3FD1FB681B683B653B6D2E
:105A100053E8003FFB64FB6C23F4D0737B66FB68A8
:105A20001B681A467B6EFB65BA65B96DFA6D41E875
:105A300000237B657B6D002BE6D1FB681B68083378
:105A4000FB63FB6B53E8003FBB63BB6B23F00103BD
:105A50003B66FB681B6808333A6EBA647B64796CFA
:105A6000BA6C41E800233B643B6C002BE5D1FB683A
:105A70002022DA67FB682022C3F88020FB6800221E
:105A800083F87820032368E0FB681B681B6803F039
:105A90000403002B50D0FB681B68DB6903F4006330
:105AA000B3F5006F48D1FB681B684FF400621A62BF
:105AB000FB681B68BB62BB6A53E8003F7B627B6A82
:105AC00023F4D073FB66FB681B681A46FB6E7B638E
:105AD0003A63396B7A6B41E80023FB62FB6A002B67
